{
  "_format": "hh-sol-artifact-1",
  "contractName": "VoxelVerseGold",
  "sourceName": "contracts/Gold.sol",
  "abi": [
    {
      "inputs": [],
      "stateMutability": "nonpayable",
      "type": "constructor"
    },
    {
      "anonymous": false,
      "inputs": [
        {
          "indexed": true,
          "internalType": "address",
          "name": "account",
          "type": "address"
        },
        {
          "indexed": true,
          "internalType": "address",
          "name": "operator",
          "type": "address"
        },
        {
          "indexed": false,
          "internalType": "bool",
          "name": "approved",
          "type": "bool"
        }
      ],
      "name": "ApprovalForAll",
      "type": "event"
    },
    {
      "anonymous": false,
      "inputs": [
        {
          "indexed": true,
          "internalType": "address",
          "name": "player",
          "type": "address"
        },
        {
          "indexed": false,
          "internalType": "uint256",
          "name": "amount",
          "type": "uint256"
        }
      ],
      "name": "Burned",
      "type": "event"
    },
    {
      "anonymous": false,
      "inputs": [
        {
          "indexed": true,
          "internalType": "address",
          "name": "previousOwner",
          "type": "address"
        },
        {
          "indexed": true,
          "internalType": "address",
          "name": "newOwner",
          "type": "address"
        }
      ],
      "name": "OwnershipTransferred",
      "type": "event"
    },
    {
      "anonymous": false,
      "inputs": [
        {
          "indexed": false,
          "internalType": "address",
          "name": "account",
          "type": "address"
        }
      ],
      "name": "Paused",
      "type": "event"
    },
    {
      "anonymous": false,
      "inputs": [
        {
          "indexed": true,
          "internalType": "address",
          "name": "operator",
          "type": "address"
        },
        {
          "indexed": true,
          "internalType": "address",
          "name": "from",
          "type": "address"
        },
        {
          "indexed": true,
          "internalType": "address",
          "name": "to",
          "type": "address"
        },
        {
          "indexed": false,
          "internalType": "uint256[]",
          "name": "ids",
          "type": "uint256[]"
        },
        {
          "indexed": false,
          "internalType": "uint256[]",
          "name": "values",
          "type": "uint256[]"
        }
      ],
      "name": "TransferBatch",
      "type": "event"
    },
    {
      "anonymous": false,
      "inputs": [
        {
          "indexed": true,
          "internalType": "address",
          "name": "operator",
          "type": "address"
        },
        {
          "indexed": true,
          "internalType": "address",
          "name": "from",
          "type": "address"
        },
        {
          "indexed": true,
          "internalType": "address",
          "name": "to",
          "type": "address"
        },
        {
          "indexed": false,
          "internalType": "uint256",
          "name": "id",
          "type": "uint256"
        },
        {
          "indexed": false,
          "internalType": "uint256",
          "name": "value",
          "type": "uint256"
        }
      ],
      "name": "TransferSingle",
      "type": "event"
    },
    {
      "anonymous": false,
      "inputs": [
        {
          "indexed": false,
          "internalType": "string",
          "name": "value",
          "type": "string"
        },
        {
          "indexed": true,
          "internalType": "uint256",
          "name": "id",
          "type": "uint256"
        }
      ],
      "name": "URI",
      "type": "event"
    },
    {
      "anonymous": false,
      "inputs": [
        {
          "indexed": false,
          "internalType": "address",
          "name": "account",
          "type": "address"
        }
      ],
      "name": "Unpaused",
      "type": "event"
    },
    {
      "inputs": [
        {
          "internalType": "address",
          "name": "",
          "type": "address"
        }
      ],
      "name": "allowedContracts",
      "outputs": [
        {
          "internalType": "bool",
          "name": "",
          "type": "bool"
        }
      ],
      "stateMutability": "view",
      "type": "function"
    },
    {
      "inputs": [
        {
          "internalType": "address",
          "name": "account",
          "type": "address"
        },
        {
          "internalType": "uint256",
          "name": "id",
          "type": "uint256"
        }
      ],
      "name": "balanceOf",
      "outputs": [
        {
          "internalType": "uint256",
          "name": "",
          "type": "uint256"
        }
      ],
      "stateMutability": "view",
      "type": "function"
    },
    {
      "inputs": [
        {
          "internalType": "address[]",
          "name": "accounts",
          "type": "address[]"
        },
        {
          "internalType": "uint256[]",
          "name": "ids",
          "type": "uint256[]"
        }
      ],
      "name": "balanceOfBatch",
      "outputs": [
        {
          "internalType": "uint256[]",
          "name": "",
          "type": "uint256[]"
        }
      ],
      "stateMutability": "view",
      "type": "function"
    },
    {
      "inputs": [
        {
          "internalType": "address",
          "name": "account",
          "type": "address"
        },
        {
          "internalType": "uint256",
          "name": "id",
          "type": "uint256"
        },
        {
          "internalType": "uint256",
          "name": "value",
          "type": "uint256"
        }
      ],
      "name": "burn",
      "outputs": [],
      "stateMutability": "nonpayable",
      "type": "function"
    },
    {
      "inputs": [
        {
          "internalType": "address",
          "name": "account",
          "type": "address"
        },
        {
          "internalType": "uint256[]",
          "name": "ids",
          "type": "uint256[]"
        },
        {
          "internalType": "uint256[]",
          "name": "values",
          "type": "uint256[]"
        }
      ],
      "name": "burnBatch",
      "outputs": [],
      "stateMutability": "nonpayable",
      "type": "function"
    },
    {
      "inputs": [
        {
          "internalType": "address",
          "name": "user",
          "type": "address"
        },
        {
          "internalType": "uint256",
          "name": "amount",
          "type": "uint256"
        }
      ],
      "name": "burnGold",
      "outputs": [],
      "stateMutability": "nonpayable",
      "type": "function"
    },
    {
      "inputs": [
        {
          "internalType": "address",
          "name": "to",
          "type": "address"
        },
        {
          "internalType": "uint256",
          "name": "amount",
          "type": "uint256"
        }
      ],
      "name": "contractMint",
      "outputs": [],
      "stateMutability": "nonpayable",
      "type": "function"
    },
    {
      "inputs": [
        {
          "internalType": "address",
          "name": "to",
          "type": "address"
        },
        {
          "internalType": "uint256[]",
          "name": "ids",
          "type": "uint256[]"
        },
        {
          "internalType": "uint256[]",
          "name": "amounts",
          "type": "uint256[]"
        }
      ],
      "name": "contractMintBatch",
      "outputs": [],
      "stateMutability": "nonpayable",
      "type": "function"
    },
    {
      "inputs": [
        {
          "internalType": "uint256",
          "name": "id",
          "type": "uint256"
        }
      ],
      "name": "exists",
      "outputs": [
        {
          "internalType": "bool",
          "name": "",
          "type": "bool"
        }
      ],
      "stateMutability": "view",
      "type": "function"
    },
    {
      "inputs": [],
      "name": "gold",
      "outputs": [
        {
          "internalType": "uint256",
          "name": "",
          "type": "uint256"
        }
      ],
      "stateMutability": "view",
      "type": "function"
    },
    {
      "inputs": [
        {
          "internalType": "address",
          "name": "account",
          "type": "address"
        },
        {
          "internalType": "address",
          "name": "operator",
          "type": "address"
        }
      ],
      "name": "isApprovedForAll",
      "outputs": [
        {
          "internalType": "bool",
          "name": "",
          "type": "bool"
        }
      ],
      "stateMutability": "view",
      "type": "function"
    },
    {
      "inputs": [
        {
          "internalType": "uint256",
          "name": "amount",
          "type": "uint256"
        }
      ],
      "name": "mint",
      "outputs": [],
      "stateMutability": "nonpayable",
      "type": "function"
    },
    {
      "inputs": [
        {
          "internalType": "address",
          "name": "to",
          "type": "address"
        },
        {
          "internalType": "uint256[]",
          "name": "ids",
          "type": "uint256[]"
        },
        {
          "internalType": "uint256[]",
          "name": "amounts",
          "type": "uint256[]"
        }
      ],
      "name": "mintBatch",
      "outputs": [],
      "stateMutability": "nonpayable",
      "type": "function"
    },
    {
      "inputs": [],
      "name": "owner",
      "outputs": [
        {
          "internalType": "address",
          "name": "",
          "type": "address"
        }
      ],
      "stateMutability": "view",
      "type": "function"
    },
    {
      "inputs": [],
      "name": "pause",
      "outputs": [],
      "stateMutability": "nonpayable",
      "type": "function"
    },
    {
      "inputs": [],
      "name": "paused",
      "outputs": [
        {
          "internalType": "bool",
          "name": "",
          "type": "bool"
        }
      ],
      "stateMutability": "view",
      "type": "function"
    },
    {
      "inputs": [],
      "name": "renounceOwnership",
      "outputs": [],
      "stateMutability": "nonpayable",
      "type": "function"
    },
    {
      "inputs": [
        {
          "internalType": "address",
          "name": "from",
          "type": "address"
        },
        {
          "internalType": "address",
          "name": "to",
          "type": "address"
        },
        {
          "internalType": "uint256[]",
          "name": "ids",
          "type": "uint256[]"
        },
        {
          "internalType": "uint256[]",
          "name": "amounts",
          "type": "uint256[]"
        },
        {
          "internalType": "bytes",
          "name": "data",
          "type": "bytes"
        }
      ],
      "name": "safeBatchTransferFrom",
      "outputs": [],
      "stateMutability": "nonpayable",
      "type": "function"
    },
    {
      "inputs": [
        {
          "internalType": "address",
          "name": "from",
          "type": "address"
        },
        {
          "internalType": "address",
          "name": "to",
          "type": "address"
        },
        {
          "internalType": "uint256",
          "name": "id",
          "type": "uint256"
        },
        {
          "internalType": "uint256",
          "name": "amount",
          "type": "uint256"
        },
        {
          "internalType": "bytes",
          "name": "data",
          "type": "bytes"
        }
      ],
      "name": "safeTransferFrom",
      "outputs": [],
      "stateMutability": "nonpayable",
      "type": "function"
    },
    {
      "inputs": [
        {
          "internalType": "address",
          "name": "operator",
          "type": "address"
        },
        {
          "internalType": "bool",
          "name": "approved",
          "type": "bool"
        }
      ],
      "name": "setApprovalForAll",
      "outputs": [],
      "stateMutability": "nonpayable",
      "type": "function"
    },
    {
      "inputs": [
        {
          "internalType": "string",
          "name": "newuri",
          "type": "string"
        }
      ],
      "name": "setURI",
      "outputs": [],
      "stateMutability": "nonpayable",
      "type": "function"
    },
    {
      "inputs": [
        {
          "internalType": "bytes4",
          "name": "interfaceId",
          "type": "bytes4"
        }
      ],
      "name": "supportsInterface",
      "outputs": [
        {
          "internalType": "bool",
          "name": "",
          "type": "bool"
        }
      ],
      "stateMutability": "view",
      "type": "function"
    },
    {
      "inputs": [
        {
          "internalType": "uint256",
          "name": "id",
          "type": "uint256"
        }
      ],
      "name": "totalSupply",
      "outputs": [
        {
          "internalType": "uint256",
          "name": "",
          "type": "uint256"
        }
      ],
      "stateMutability": "view",
      "type": "function"
    },
    {
      "inputs": [
        {
          "internalType": "address",
          "name": "newOwner",
          "type": "address"
        }
      ],
      "name": "transferOwnership",
      "outputs": [],
      "stateMutability": "nonpayable",
      "type": "function"
    },
    {
      "inputs": [],
      "name": "unpause",
      "outputs": [],
      "stateMutability": "nonpayable",
      "type": "function"
    },
    {
      "inputs": [
        {
          "internalType": "uint256",
          "name": "",
          "type": "uint256"
        }
      ],
      "name": "uri",
      "outputs": [
        {
          "internalType": "string",
          "name": "",
          "type": "string"
        }
      ],
      "stateMutability": "view",
      "type": "function"
    }
  ],
  "bytecode": "0x60806040523480156200001157600080fd5b506040518060800160405280604d815260200162002699604d9139620000378162000056565b50620000433362000068565b6003805460ff60a01b191690556200022b565b60026200006482826200015f565b5050565b600380546001600160a01b038381166001600160a01b0319831681179093556040519116919082907f8be0079c531659141344cd1fd0a4f28419497f9722a3daafe3b4186f6b6457e090600090a35050565b634e487b7160e01b600052604160045260246000fd5b600181811c90821680620000e557607f821691505b6020821081036200010657634e487b7160e01b600052602260045260246000fd5b50919050565b601f8211156200015a57600081815260208120601f850160051c81016020861015620001355750805b601f850160051c820191505b81811015620001565782815560010162000141565b5050505b505050565b81516001600160401b038111156200017b576200017b620000ba565b62000193816200018c8454620000d0565b846200010c565b602080601f831160018114620001cb5760008415620001b25750858301515b600019600386901b1c1916600185901b17855562000156565b600085815260208120601f198616915b82811015620001fc57888601518255948401946001909101908401620001db565b50858210156200021b5787850151600019600388901b60f8161c191681555b5050505050600190811b01905550565b61245e806200023b6000396000f3fe608060405234801561001057600080fd5b506004361061018d5760003560e01c8063715018a6116100de578063bd85b03911610097578063f242432a11610071578063f242432a146103ae578063f2fde38b146103c1578063f5298aca146103d4578063fbec6f21146103e757600080fd5b8063bd85b0391461033f578063d81d0a151461035f578063e985e9c51461037257600080fd5b8063715018a6146102db57806384229e67146102e35780638456cb59146102f65780638da5cb5b146102fe578063a0712d6814610319578063a22cb4651461032c57600080fd5b80633f4ba83a1161014b5780634f558e79116101255780634f558e791461027157806351e0e26b146102935780635c975abb146102b65780636b20c454146102c857600080fd5b80633f4ba83a14610236578063436679b41461023e5780634e1273f41461025157600080fd5b8062fdd58e1461019257806301ffc9a7146101b857806302fe5305146101db5780630b2b60a1146101f05780630e89341c146102035780632eb2c2d614610223575b600080fd5b6101a56101a036600461189c565b6103ef565b6040519081526020015b60405180910390f35b6101cb6101c63660046118dc565b610488565b60405190151581526020016101af565b6101ee6101e93660046119a1565b6104d8565b005b6101ee6101fe36600461189c565b6104ec565b6102166102113660046119f2565b610599565b6040516101af9190611a51565b6101ee610231366004611b19565b61062d565b6101ee610679565b6101ee61024c366004611bc3565b61068b565b61026461025f366004611c37565b6106da565b6040516101af9190611d3d565b6101cb61027f3660046119f2565b600090815260046020526040902054151590565b6101cb6102a1366004611d50565b60056020526000908152604090205460ff1681565b600354600160a01b900460ff166101cb565b6101ee6102d6366004611bc3565b610804565b6101ee610847565b6101ee6102f136600461189c565b610859565b6101ee6108a8565b6003546040516001600160a01b0390911681526020016101af565b6101ee6103273660046119f2565b6108b8565b6101ee61033a366004611d6b565b6108dc565b6101a561034d3660046119f2565b60009081526004602052604090205490565b6101ee61036d366004611bc3565b6108e7565b6101cb610380366004611da7565b6001600160a01b03918216600090815260016020908152604080832093909416825291909152205460ff1690565b6101ee6103bc366004611dda565b6108ef565b6101ee6103cf366004611d50565b610934565b6101ee6103e2366004611e3f565b6109aa565b6101a5600481565b60006001600160a01b03831661045f5760405162461bcd60e51b815260206004820152602a60248201527f455243313135353a2061646472657373207a65726f206973206e6f742061207660448201526930b634b21037bbb732b960b11b60648201526084015b60405180910390fd5b506000818152602081815260408083206001600160a01b03861684529091529020545b92915050565b60006001600160e01b03198216636cdb3d1360e11b14806104b957506001600160e01b031982166303a24d0760e21b145b8061048257506301ffc9a760e01b6001600160e01b0319831614610482565b6104e06109ed565b6104e981610a47565b50565b60006104f98360046103ef565b116105465760405162461bcd60e51b815260206004820152601c60248201527f596f7520646f6e277420616e792073746f6e6520746f206275726e21000000006044820152606401610456565b61055282600483610a53565b816001600160a01b03167f696de425f79f4a40bc6d2122ca50507f0efbeabbff86a84871b7196ab8ea8df78260405161058d91815260200190565b60405180910390a25050565b6060600280546105a890611e72565b80601f01602080910402602001604051908101604052809291908181526020018280546105d490611e72565b80156106215780601f106105f657610100808354040283529160200191610621565b820191906000526020600020905b81548152906001019060200180831161060457829003601f168201915b50505050509050919050565b6001600160a01b03851633148061064957506106498533610380565b6106655760405162461bcd60e51b815260040161045690611eac565b6106728585858585610b70565b5050505050565b6106816109ed565b610689610d1a565b565b3360009081526005602052604090205460ff166106ba5760405162461bcd60e51b815260040161045690611efa565b6106d583838360405180602001604052806000815250610d6f565b505050565b6060815183511461073f5760405162461bcd60e51b815260206004820152602960248201527f455243313135353a206163636f756e747320616e6420696473206c656e677468604482015268040dad2e6dac2e8c6d60bb1b6064820152608401610456565b6000835167ffffffffffffffff81111561075b5761075b611900565b604051908082528060200260200182016040528015610784578160200160208202803683370190505b50905060005b84518110156107fc576107cf8582815181106107a8576107a8611f4f565b60200260200101518583815181106107c2576107c2611f4f565b60200260200101516103ef565b8282815181106107e1576107e1611f4f565b60209081029190910101526107f581611f7b565b905061078a565b509392505050565b6001600160a01b03831633148061082057506108208333610380565b61083c5760405162461bcd60e51b815260040161045690611eac565b6106d5838383610ec9565b61084f6109ed565b6106896000611066565b3360009081526005602052604090205460ff166108885760405162461bcd60e51b815260040161045690611efa565b6108a482600483604051806020016040528060008152506110b8565b5050565b6108b06109ed565b610689611198565b6108c06109ed565b6104e933600483604051806020016040528060008152506110b8565b6108a43383836111db565b6106ba6109ed565b6001600160a01b03851633148061090b575061090b8533610380565b6109275760405162461bcd60e51b815260040161045690611eac565b61067285858585856112bb565b61093c6109ed565b6001600160a01b0381166109a15760405162461bcd60e51b815260206004820152602660248201527f4f776e61626c653a206e6577206f776e657220697320746865207a65726f206160448201526564647265737360d01b6064820152608401610456565b6104e981611066565b6001600160a01b0383163314806109c657506109c68333610380565b6109e25760405162461bcd60e51b815260040161045690611eac565b6106d5838383610a53565b6003546001600160a01b031633146106895760405162461bcd60e51b815260206004820181905260248201527f4f776e61626c653a2063616c6c6572206973206e6f7420746865206f776e65726044820152606401610456565b60026108a48282611fda565b6001600160a01b038316610a795760405162461bcd60e51b81526004016104569061209a565b336000610a85846113f3565b90506000610a92846113f3565b9050610ab28387600085856040518060200160405280600081525061143e565b6000858152602081815260408083206001600160a01b038a16845290915290205484811015610af35760405162461bcd60e51b8152600401610456906120dd565b6000868152602081815260408083206001600160a01b038b81168086529184528285208a8703905582518b81529384018a90529092908816917fc3d58168c5ae7397731d063d5bbf3d657854427343f4c083240f7aacaa2d0f62910160405180910390a46040805160208101909152600090525b50505050505050565b8151835114610b915760405162461bcd60e51b815260040161045690612121565b6001600160a01b038416610bb75760405162461bcd60e51b815260040161045690612169565b33610bc681878787878761143e565b60005b8451811015610cac576000858281518110610be657610be6611f4f565b602002602001015190506000858381518110610c0457610c04611f4f565b602090810291909101810151600084815280835260408082206001600160a01b038e168352909352919091205490915081811015610c545760405162461bcd60e51b8152600401610456906121ae565b6000838152602081815260408083206001600160a01b038e8116855292528083208585039055908b16825281208054849290610c919084906121f8565b9250508190555050505080610ca590611f7b565b9050610bc9565b50846001600160a01b0316866001600160a01b0316826001600160a01b03167f4a39dc06d4c0dbc64b70af90fd698a233a518aa5d07e595d983b8c0526c8f7fb8787604051610cfc92919061220b565b60405180910390a4610d12818787878787611454565b505050505050565b610d226115af565b6003805460ff60a01b191690557f5db9ee0a495bf2e6ff9c91a7834c1ba4fdd244a5e8aa4e537bd38aeae4b073aa335b6040516001600160a01b03909116815260200160405180910390a1565b6001600160a01b038416610d955760405162461bcd60e51b815260040161045690612239565b8151835114610db65760405162461bcd60e51b815260040161045690612121565b33610dc68160008787878761143e565b60005b8451811015610e6157838181518110610de457610de4611f4f565b6020026020010151600080878481518110610e0157610e01611f4f565b602002602001015181526020019081526020016000206000886001600160a01b03166001600160a01b031681526020019081526020016000206000828254610e4991906121f8565b90915550819050610e5981611f7b565b915050610dc9565b50846001600160a01b031660006001600160a01b0316826001600160a01b03167f4a39dc06d4c0dbc64b70af90fd698a233a518aa5d07e595d983b8c0526c8f7fb8787604051610eb292919061220b565b60405180910390a461067281600087878787611454565b6001600160a01b038316610eef5760405162461bcd60e51b81526004016104569061209a565b8051825114610f105760405162461bcd60e51b815260040161045690612121565b6000339050610f338185600086866040518060200160405280600081525061143e565b60005b8351811015610ff8576000848281518110610f5357610f53611f4f565b602002602001015190506000848381518110610f7157610f71611f4f565b602090810291909101810151600084815280835260408082206001600160a01b038c168352909352919091205490915081811015610fc15760405162461bcd60e51b8152600401610456906120dd565b6000928352602083815260408085206001600160a01b038b1686529091529092209103905580610ff081611f7b565b915050610f36565b5060006001600160a01b0316846001600160a01b0316826001600160a01b03167f4a39dc06d4c0dbc64b70af90fd698a233a518aa5d07e595d983b8c0526c8f7fb868660405161104992919061220b565b60405180910390a460408051602081019091526000905250505050565b600380546001600160a01b038381166001600160a01b0319831681179093556040519116919082907f8be0079c531659141344cd1fd0a4f28419497f9722a3daafe3b4186f6b6457e090600090a35050565b6001600160a01b0384166110de5760405162461bcd60e51b815260040161045690612239565b3360006110ea856113f3565b905060006110f7856113f3565b90506111088360008985858961143e565b6000868152602081815260408083206001600160a01b038b168452909152812080548792906111389084906121f8565b909155505060408051878152602081018790526001600160a01b03808a1692600092918716917fc3d58168c5ae7397731d063d5bbf3d657854427343f4c083240f7aacaa2d0f62910160405180910390a4610b67836000898989896115ff565b6111a06116ba565b6003805460ff60a01b1916600160a01b1790557f62e78cea01bee320cd4e420270b5ea74000d11b0c9f74754ebdbfc544b05a258610d523390565b816001600160a01b0316836001600160a01b03160361124e5760405162461bcd60e51b815260206004820152602960248201527f455243313135353a2073657474696e6720617070726f76616c20737461747573604482015268103337b91039b2b63360b91b6064820152608401610456565b6001600160a01b03838116600081815260016020908152604080832094871680845294825291829020805460ff191686151590811790915591519182527f17307eab39ab6107e8899845ad3d59bd9653f200f220920489ca2b5937696c31910160405180910390a3505050565b6001600160a01b0384166112e15760405162461bcd60e51b815260040161045690612169565b3360006112ed856113f3565b905060006112fa856113f3565b905061130a83898985858961143e565b6000868152602081815260408083206001600160a01b038c1684529091529020548581101561134b5760405162461bcd60e51b8152600401610456906121ae565b6000878152602081815260408083206001600160a01b038d8116855292528083208985039055908a168252812080548892906113889084906121f8565b909155505060408051888152602081018890526001600160a01b03808b16928c821692918816917fc3d58168c5ae7397731d063d5bbf3d657854427343f4c083240f7aacaa2d0f62910160405180910390a46113e8848a8a8a8a8a6115ff565b505050505050505050565b6040805160018082528183019092526060916000919060208083019080368337019050509050828160008151811061142d5761142d611f4f565b602090810291909101015292915050565b6114466116ba565b610d12868686868686611707565b6001600160a01b0384163b15610d125760405163bc197c8160e01b81526001600160a01b0385169063bc197c8190611498908990899088908890889060040161227a565b6020604051808303816000875af19250505080156114d3575060408051601f3d908101601f191682019092526114d0918101906122d8565b60015b61157f576114df6122f5565b806308c379a00361151857506114f3612311565b806114fe575061151a565b8060405162461bcd60e51b81526004016104569190611a51565b505b60405162461bcd60e51b815260206004820152603460248201527f455243313135353a207472616e7366657220746f206e6f6e2d455243313135356044820152732932b1b2b4bb32b91034b6b83632b6b2b73a32b960611b6064820152608401610456565b6001600160e01b0319811663bc197c8160e01b14610b675760405162461bcd60e51b81526004016104569061239b565b600354600160a01b900460ff166106895760405162461bcd60e51b815260206004820152601460248201527314185d5cd8589b194e881b9bdd081c185d5cd95960621b6044820152606401610456565b6001600160a01b0384163b15610d125760405163f23a6e6160e01b81526001600160a01b0385169063f23a6e619061164390899089908890889088906004016123e3565b6020604051808303816000875af192505050801561167e575060408051601f3d908101601f1916820190925261167b918101906122d8565b60015b61168a576114df6122f5565b6001600160e01b0319811663f23a6e6160e01b14610b675760405162461bcd60e51b81526004016104569061239b565b600354600160a01b900460ff16156106895760405162461bcd60e51b815260206004820152601060248201526f14185d5cd8589b194e881c185d5cd95960821b6044820152606401610456565b6001600160a01b03851661178e5760005b835181101561178c5782818151811061173357611733611f4f565b60200260200101516004600086848151811061175157611751611f4f565b60200260200101518152602001908152602001600020600082825461177691906121f8565b90915550611785905081611f7b565b9050611718565b505b6001600160a01b038416610d125760005b8351811015610b675760008482815181106117bc576117bc611f4f565b6020026020010151905060008483815181106117da576117da611f4f565b602002602001015190506000600460008481526020019081526020016000205490508181101561185d5760405162461bcd60e51b815260206004820152602860248201527f455243313135353a206275726e20616d6f756e74206578636565647320746f74604482015267616c537570706c7960c01b6064820152608401610456565b6000928352600460205260409092209103905561187981611f7b565b905061179f565b80356001600160a01b038116811461189757600080fd5b919050565b600080604083850312156118af57600080fd5b6118b883611880565b946020939093013593505050565b6001600160e01b0319811681146104e957600080fd5b6000602082840312156118ee57600080fd5b81356118f9816118c6565b9392505050565b634e487b7160e01b600052604160045260246000fd5b601f8201601f1916810167ffffffffffffffff8111828210171561193c5761193c611900565b6040525050565b600067ffffffffffffffff83111561195d5761195d611900565b604051611974601f8501601f191660200182611916565b80915083815284848401111561198957600080fd5b83836020830137600060208583010152509392505050565b6000602082840312156119b357600080fd5b813567ffffffffffffffff8111156119ca57600080fd5b8201601f810184136119db57600080fd5b6119ea84823560208401611943565b949350505050565b600060208284031215611a0457600080fd5b5035919050565b6000815180845260005b81811015611a3157602081850181015186830182015201611a15565b506000602082860101526020601f19601f83011685010191505092915050565b6020815260006118f96020830184611a0b565b600067ffffffffffffffff821115611a7e57611a7e611900565b5060051b60200190565b600082601f830112611a9957600080fd5b81356020611aa682611a64565b604051611ab38282611916565b83815260059390931b8501820192828101915086841115611ad357600080fd5b8286015b84811015611aee5780358352918301918301611ad7565b509695505050505050565b600082601f830112611b0a57600080fd5b6118f983833560208501611943565b600080600080600060a08688031215611b3157600080fd5b611b3a86611880565b9450611b4860208701611880565b9350604086013567ffffffffffffffff80821115611b6557600080fd5b611b7189838a01611a88565b94506060880135915080821115611b8757600080fd5b611b9389838a01611a88565b93506080880135915080821115611ba957600080fd5b50611bb688828901611af9565b9150509295509295909350565b600080600060608486031215611bd857600080fd5b611be184611880565b9250602084013567ffffffffffffffff80821115611bfe57600080fd5b611c0a87838801611a88565b93506040860135915080821115611c2057600080fd5b50611c2d86828701611a88565b9150509250925092565b60008060408385031215611c4a57600080fd5b823567ffffffffffffffff80821115611c6257600080fd5b818501915085601f830112611c7657600080fd5b81356020611c8382611a64565b604051611c908282611916565b83815260059390931b8501820192828101915089841115611cb057600080fd5b948201945b83861015611cd557611cc686611880565b82529482019490820190611cb5565b96505086013592505080821115611ceb57600080fd5b50611cf885828601611a88565b9150509250929050565b600081518084526020808501945080840160005b83811015611d3257815187529582019590820190600101611d16565b509495945050505050565b6020815260006118f96020830184611d02565b600060208284031215611d6257600080fd5b6118f982611880565b60008060408385031215611d7e57600080fd5b611d8783611880565b915060208301358015158114611d9c57600080fd5b809150509250929050565b60008060408385031215611dba57600080fd5b611dc383611880565b9150611dd160208401611880565b90509250929050565b600080600080600060a08688031215611df257600080fd5b611dfb86611880565b9450611e0960208701611880565b93506040860135925060608601359150608086013567ffffffffffffffff811115611e3357600080fd5b611bb688828901611af9565b600080600060608486031215611e5457600080fd5b611e5d84611880565b95602085013595506040909401359392505050565b600181811c90821680611e8657607f821691505b602082108103611ea657634e487b7160e01b600052602260045260246000fd5b50919050565b6020808252602e908201527f455243313135353a2063616c6c6572206973206e6f7420746f6b656e206f776e60408201526d195c881bdc88185c1c1c9bdd995960921b606082015260800190565b60208082526035908201527f43616c6c657220646f6573206e6f742068617665207065726d697373696f6e206040820152743a379031b0b636103a3434b990333ab731ba34b7b760591b606082015260800190565b634e487b7160e01b600052603260045260246000fd5b634e487b7160e01b600052601160045260246000fd5b600060018201611f8d57611f8d611f65565b5060010190565b601f8211156106d557600081815260208120601f850160051c81016020861015611fbb5750805b601f850160051c820191505b81811015610d1257828155600101611fc7565b815167ffffffffffffffff811115611ff457611ff4611900565b612008816120028454611e72565b84611f94565b602080601f83116001811461203d57600084156120255750858301515b600019600386901b1c1916600185901b178555610d12565b600085815260208120601f198616915b8281101561206c5788860151825594840194600190910190840161204d565b508582101561208a5787850151600019600388901b60f8161c191681555b5050505050600190811b01905550565b60208082526023908201527f455243313135353a206275726e2066726f6d20746865207a65726f206164647260408201526265737360e81b606082015260800190565b60208082526024908201527f455243313135353a206275726e20616d6f756e7420657863656564732062616c604082015263616e636560e01b606082015260800190565b60208082526028908201527f455243313135353a2069647320616e6420616d6f756e7473206c656e677468206040820152670dad2e6dac2e8c6d60c31b606082015260800190565b60208082526025908201527f455243313135353a207472616e7366657220746f20746865207a65726f206164604082015264647265737360d81b606082015260800190565b6020808252602a908201527f455243313135353a20696e73756666696369656e742062616c616e636520666f60408201526939103a3930b739b332b960b11b606082015260800190565b8082018082111561048257610482611f65565b60408152600061221e6040830185611d02565b82810360208401526122308185611d02565b95945050505050565b60208082526021908201527f455243313135353a206d696e7420746f20746865207a65726f206164647265736040820152607360f81b606082015260800190565b6001600160a01b0386811682528516602082015260a0604082018190526000906122a690830186611d02565b82810360608401526122b88186611d02565b905082810360808401526122cc8185611a0b565b98975050505050505050565b6000602082840312156122ea57600080fd5b81516118f9816118c6565b600060033d111561230e5760046000803e5060005160e01c5b90565b600060443d101561231f5790565b6040516003193d81016004833e81513d67ffffffffffffffff816024840111818411171561234f57505050505090565b82850191508151818111156123675750505050505090565b843d87010160208285010111156123815750505050505090565b61239060208286010187611916565b509095945050505050565b60208082526028908201527f455243313135353a204552433131353552656365697665722072656a656374656040820152676420746f6b656e7360c01b606082015260800190565b6001600160a01b03868116825285166020820152604081018490526060810183905260a06080820181905260009061241d90830184611a0b565b97965050505050505056fea2646970667358221220d762003771024371d65f1d26e4926e86082d9d62edd30986cf3d134b98b43a3c64736f6c6343000813003368747470733a2f2f697066732e696f2f697066732f516d6139716f5766594c4b31677772656a706b3773743477743756383259786f4479394d774c45534834486b59342f7b69647d2e6a736f6e",
  "linkReferences": {},
  "deployedLinkReferences": {}
}