{
  "_format": "hh-sol-artifact-1",
  "contractName": "VoxelVerseStone",
  "sourceName": "contracts/Stone.sol",
  "abi": [
    {
      "inputs": [],
      "stateMutability": "nonpayable",
      "type": "constructor"
    },
    {
      "anonymous": false,
      "inputs": [
        {
          "indexed": true,
          "internalType": "address",
          "name": "account",
          "type": "address"
        },
        {
          "indexed": true,
          "internalType": "address",
          "name": "operator",
          "type": "address"
        },
        {
          "indexed": false,
          "internalType": "bool",
          "name": "approved",
          "type": "bool"
        }
      ],
      "name": "ApprovalForAll",
      "type": "event"
    },
    {
      "anonymous": false,
      "inputs": [
        {
          "indexed": true,
          "internalType": "address",
          "name": "player",
          "type": "address"
        },
        {
          "indexed": false,
          "internalType": "uint256",
          "name": "amount",
          "type": "uint256"
        }
      ],
      "name": "Burned",
      "type": "event"
    },
    {
      "anonymous": false,
      "inputs": [
        {
          "indexed": true,
          "internalType": "address",
          "name": "previousOwner",
          "type": "address"
        },
        {
          "indexed": true,
          "internalType": "address",
          "name": "newOwner",
          "type": "address"
        }
      ],
      "name": "OwnershipTransferred",
      "type": "event"
    },
    {
      "anonymous": false,
      "inputs": [
        {
          "indexed": false,
          "internalType": "address",
          "name": "account",
          "type": "address"
        }
      ],
      "name": "Paused",
      "type": "event"
    },
    {
      "anonymous": false,
      "inputs": [
        {
          "indexed": true,
          "internalType": "address",
          "name": "operator",
          "type": "address"
        },
        {
          "indexed": true,
          "internalType": "address",
          "name": "from",
          "type": "address"
        },
        {
          "indexed": true,
          "internalType": "address",
          "name": "to",
          "type": "address"
        },
        {
          "indexed": false,
          "internalType": "uint256[]",
          "name": "ids",
          "type": "uint256[]"
        },
        {
          "indexed": false,
          "internalType": "uint256[]",
          "name": "values",
          "type": "uint256[]"
        }
      ],
      "name": "TransferBatch",
      "type": "event"
    },
    {
      "anonymous": false,
      "inputs": [
        {
          "indexed": true,
          "internalType": "address",
          "name": "operator",
          "type": "address"
        },
        {
          "indexed": true,
          "internalType": "address",
          "name": "from",
          "type": "address"
        },
        {
          "indexed": true,
          "internalType": "address",
          "name": "to",
          "type": "address"
        },
        {
          "indexed": false,
          "internalType": "uint256",
          "name": "id",
          "type": "uint256"
        },
        {
          "indexed": false,
          "internalType": "uint256",
          "name": "value",
          "type": "uint256"
        }
      ],
      "name": "TransferSingle",
      "type": "event"
    },
    {
      "anonymous": false,
      "inputs": [
        {
          "indexed": false,
          "internalType": "string",
          "name": "value",
          "type": "string"
        },
        {
          "indexed": true,
          "internalType": "uint256",
          "name": "id",
          "type": "uint256"
        }
      ],
      "name": "URI",
      "type": "event"
    },
    {
      "anonymous": false,
      "inputs": [
        {
          "indexed": false,
          "internalType": "address",
          "name": "account",
          "type": "address"
        }
      ],
      "name": "Unpaused",
      "type": "event"
    },
    {
      "inputs": [
        {
          "internalType": "address",
          "name": "",
          "type": "address"
        }
      ],
      "name": "allowedContracts",
      "outputs": [
        {
          "internalType": "bool",
          "name": "",
          "type": "bool"
        }
      ],
      "stateMutability": "view",
      "type": "function"
    },
    {
      "inputs": [
        {
          "internalType": "address",
          "name": "account",
          "type": "address"
        },
        {
          "internalType": "uint256",
          "name": "id",
          "type": "uint256"
        }
      ],
      "name": "balanceOf",
      "outputs": [
        {
          "internalType": "uint256",
          "name": "",
          "type": "uint256"
        }
      ],
      "stateMutability": "view",
      "type": "function"
    },
    {
      "inputs": [
        {
          "internalType": "address[]",
          "name": "accounts",
          "type": "address[]"
        },
        {
          "internalType": "uint256[]",
          "name": "ids",
          "type": "uint256[]"
        }
      ],
      "name": "balanceOfBatch",
      "outputs": [
        {
          "internalType": "uint256[]",
          "name": "",
          "type": "uint256[]"
        }
      ],
      "stateMutability": "view",
      "type": "function"
    },
    {
      "inputs": [
        {
          "internalType": "address",
          "name": "account",
          "type": "address"
        },
        {
          "internalType": "uint256",
          "name": "id",
          "type": "uint256"
        },
        {
          "internalType": "uint256",
          "name": "value",
          "type": "uint256"
        }
      ],
      "name": "burn",
      "outputs": [],
      "stateMutability": "nonpayable",
      "type": "function"
    },
    {
      "inputs": [
        {
          "internalType": "address",
          "name": "account",
          "type": "address"
        },
        {
          "internalType": "uint256[]",
          "name": "ids",
          "type": "uint256[]"
        },
        {
          "internalType": "uint256[]",
          "name": "values",
          "type": "uint256[]"
        }
      ],
      "name": "burnBatch",
      "outputs": [],
      "stateMutability": "nonpayable",
      "type": "function"
    },
    {
      "inputs": [
        {
          "internalType": "address",
          "name": "user",
          "type": "address"
        },
        {
          "internalType": "uint256",
          "name": "amount",
          "type": "uint256"
        }
      ],
      "name": "burnStone",
      "outputs": [],
      "stateMutability": "nonpayable",
      "type": "function"
    },
    {
      "inputs": [
        {
          "internalType": "uint256",
          "name": "amount",
          "type": "uint256"
        }
      ],
      "name": "contractMint",
      "outputs": [],
      "stateMutability": "nonpayable",
      "type": "function"
    },
    {
      "inputs": [
        {
          "internalType": "address",
          "name": "to",
          "type": "address"
        },
        {
          "internalType": "uint256[]",
          "name": "ids",
          "type": "uint256[]"
        },
        {
          "internalType": "uint256[]",
          "name": "amounts",
          "type": "uint256[]"
        }
      ],
      "name": "contractMintBatch",
      "outputs": [],
      "stateMutability": "nonpayable",
      "type": "function"
    },
    {
      "inputs": [
        {
          "internalType": "uint256",
          "name": "id",
          "type": "uint256"
        }
      ],
      "name": "exists",
      "outputs": [
        {
          "internalType": "bool",
          "name": "",
          "type": "bool"
        }
      ],
      "stateMutability": "view",
      "type": "function"
    },
    {
      "inputs": [
        {
          "internalType": "address",
          "name": "account",
          "type": "address"
        },
        {
          "internalType": "address",
          "name": "operator",
          "type": "address"
        }
      ],
      "name": "isApprovedForAll",
      "outputs": [
        {
          "internalType": "bool",
          "name": "",
          "type": "bool"
        }
      ],
      "stateMutability": "view",
      "type": "function"
    },
    {
      "inputs": [
        {
          "internalType": "uint256",
          "name": "amount",
          "type": "uint256"
        }
      ],
      "name": "mint",
      "outputs": [],
      "stateMutability": "nonpayable",
      "type": "function"
    },
    {
      "inputs": [
        {
          "internalType": "address",
          "name": "to",
          "type": "address"
        },
        {
          "internalType": "uint256[]",
          "name": "ids",
          "type": "uint256[]"
        },
        {
          "internalType": "uint256[]",
          "name": "amounts",
          "type": "uint256[]"
        }
      ],
      "name": "mintBatch",
      "outputs": [],
      "stateMutability": "nonpayable",
      "type": "function"
    },
    {
      "inputs": [],
      "name": "owner",
      "outputs": [
        {
          "internalType": "address",
          "name": "",
          "type": "address"
        }
      ],
      "stateMutability": "view",
      "type": "function"
    },
    {
      "inputs": [],
      "name": "pause",
      "outputs": [],
      "stateMutability": "nonpayable",
      "type": "function"
    },
    {
      "inputs": [],
      "name": "paused",
      "outputs": [
        {
          "internalType": "bool",
          "name": "",
          "type": "bool"
        }
      ],
      "stateMutability": "view",
      "type": "function"
    },
    {
      "inputs": [],
      "name": "renounceOwnership",
      "outputs": [],
      "stateMutability": "nonpayable",
      "type": "function"
    },
    {
      "inputs": [
        {
          "internalType": "address",
          "name": "from",
          "type": "address"
        },
        {
          "internalType": "address",
          "name": "to",
          "type": "address"
        },
        {
          "internalType": "uint256[]",
          "name": "ids",
          "type": "uint256[]"
        },
        {
          "internalType": "uint256[]",
          "name": "amounts",
          "type": "uint256[]"
        },
        {
          "internalType": "bytes",
          "name": "data",
          "type": "bytes"
        }
      ],
      "name": "safeBatchTransferFrom",
      "outputs": [],
      "stateMutability": "nonpayable",
      "type": "function"
    },
    {
      "inputs": [
        {
          "internalType": "address",
          "name": "from",
          "type": "address"
        },
        {
          "internalType": "address",
          "name": "to",
          "type": "address"
        },
        {
          "internalType": "uint256",
          "name": "id",
          "type": "uint256"
        },
        {
          "internalType": "uint256",
          "name": "amount",
          "type": "uint256"
        },
        {
          "internalType": "bytes",
          "name": "data",
          "type": "bytes"
        }
      ],
      "name": "safeTransferFrom",
      "outputs": [],
      "stateMutability": "nonpayable",
      "type": "function"
    },
    {
      "inputs": [
        {
          "internalType": "address",
          "name": "operator",
          "type": "address"
        },
        {
          "internalType": "bool",
          "name": "approved",
          "type": "bool"
        }
      ],
      "name": "setApprovalForAll",
      "outputs": [],
      "stateMutability": "nonpayable",
      "type": "function"
    },
    {
      "inputs": [
        {
          "internalType": "string",
          "name": "newuri",
          "type": "string"
        }
      ],
      "name": "setURI",
      "outputs": [],
      "stateMutability": "nonpayable",
      "type": "function"
    },
    {
      "inputs": [],
      "name": "stone",
      "outputs": [
        {
          "internalType": "uint256",
          "name": "",
          "type": "uint256"
        }
      ],
      "stateMutability": "view",
      "type": "function"
    },
    {
      "inputs": [
        {
          "internalType": "bytes4",
          "name": "interfaceId",
          "type": "bytes4"
        }
      ],
      "name": "supportsInterface",
      "outputs": [
        {
          "internalType": "bool",
          "name": "",
          "type": "bool"
        }
      ],
      "stateMutability": "view",
      "type": "function"
    },
    {
      "inputs": [
        {
          "internalType": "uint256",
          "name": "id",
          "type": "uint256"
        }
      ],
      "name": "totalSupply",
      "outputs": [
        {
          "internalType": "uint256",
          "name": "",
          "type": "uint256"
        }
      ],
      "stateMutability": "view",
      "type": "function"
    },
    {
      "inputs": [
        {
          "internalType": "address",
          "name": "newOwner",
          "type": "address"
        }
      ],
      "name": "transferOwnership",
      "outputs": [],
      "stateMutability": "nonpayable",
      "type": "function"
    },
    {
      "inputs": [],
      "name": "unpause",
      "outputs": [],
      "stateMutability": "nonpayable",
      "type": "function"
    },
    {
      "inputs": [
        {
          "internalType": "uint256",
          "name": "",
          "type": "uint256"
        }
      ],
      "name": "uri",
      "outputs": [
        {
          "internalType": "string",
          "name": "",
          "type": "string"
        }
      ],
      "stateMutability": "view",
      "type": "function"
    }
  ],
  "bytecode": "0x60806040523480156200001157600080fd5b506040518060800160405280604d815260200162002681604d9139620000378162000056565b50620000433362000068565b6003805460ff60a01b191690556200022b565b60026200006482826200015f565b5050565b600380546001600160a01b038381166001600160a01b0319831681179093556040519116919082907f8be0079c531659141344cd1fd0a4f28419497f9722a3daafe3b4186f6b6457e090600090a35050565b634e487b7160e01b600052604160045260246000fd5b600181811c90821680620000e557607f821691505b6020821081036200010657634e487b7160e01b600052602260045260246000fd5b50919050565b601f8211156200015a57600081815260208120601f850160051c81016020861015620001355750805b601f850160051c820191505b81811015620001565782815560010162000141565b5050505b505050565b81516001600160401b038111156200017b576200017b620000ba565b62000193816200018c8454620000d0565b846200010c565b602080601f831160018114620001cb5760008415620001b25750858301515b600019600386901b1c1916600185901b17855562000156565b600085815260208120601f198616915b82811015620001fc57888601518255948401946001909101908401620001db565b50858210156200021b5787850151600019600388901b60f8161c191681555b5050505050600190811b01905550565b612446806200023b6000396000f3fe608060405234801561001057600080fd5b506004361061018d5760003560e01c8063715018a6116100de578063bd85b03911610097578063f242432a11610071578063f242432a146103a3578063f2fde38b146103b6578063f5298aca146103c9578063f610372b146103dc57600080fd5b8063bd85b03914610334578063d81d0a1514610354578063e985e9c51461036757600080fd5b8063715018a6146102d05780638456cb59146102d85780638da5cb5b146102e0578063a0712d68146102fb578063a22cb4651461030e578063adc89a871461032157600080fd5b80633f4ba83a1161014b5780634f558e79116101255780634f558e791461026657806351e0e26b146102885780635c975abb146102ab5780636b20c454146102bd57600080fd5b80633f4ba83a1461022b578063436679b4146102335780634e1273f41461024657600080fd5b8062fdd58e146101925780630167eb85146101b857806301ffc9a7146101c057806302fe5305146101e35780630e89341c146101f85780632eb2c2d614610218575b600080fd5b6101a56101a0366004611884565b6103ef565b6040519081526020015b60405180910390f35b6101a5600281565b6101d36101ce3660046118c4565b610488565b60405190151581526020016101af565b6101f66101f1366004611989565b6104d8565b005b61020b6102063660046119da565b6104ec565b6040516101af9190611a39565b6101f6610226366004611b01565b610580565b6101f66105cc565b6101f6610241366004611bab565b6105de565b610259610254366004611c1f565b61062d565b6040516101af9190611d25565b6101d36102743660046119da565b600090815260046020526040902054151590565b6101d3610296366004611d38565b60056020526000908152604090205460ff1681565b600354600160a01b900460ff166101d3565b6101f66102cb366004611bab565b610757565b6101f661079a565b6101f66107ac565b6003546040516001600160a01b0390911681526020016101af565b6101f66103093660046119da565b6107bc565b6101f661031c366004611d53565b6107e0565b6101f661032f366004611884565b6107ef565b6101a56103423660046119da565b60009081526004602052604090205490565b6101f6610362366004611bab565b61089c565b6101d3610375366004611d8f565b6001600160a01b03918216600090815260016020908152604080832093909416825291909152205460ff1690565b6101f66103b1366004611dc2565b6108a4565b6101f66103c4366004611d38565b6108e9565b6101f66103d7366004611e27565b61095f565b6101f66103ea3660046119da565b6109a2565b60006001600160a01b03831661045f5760405162461bcd60e51b815260206004820152602a60248201527f455243313135353a2061646472657373207a65726f206973206e6f742061207660448201526930b634b21037bbb732b960b11b60648201526084015b60405180910390fd5b506000818152602081815260408083206001600160a01b03861684529091529020545b92915050565b60006001600160e01b03198216636cdb3d1360e11b14806104b957506001600160e01b031982166303a24d0760e21b145b8061048257506301ffc9a760e01b6001600160e01b0319831614610482565b6104e06109d1565b6104e981610a2b565b50565b6060600280546104fb90611e5a565b80601f016020809104026020016040519081016040528092919081815260200182805461052790611e5a565b80156105745780601f1061054957610100808354040283529160200191610574565b820191906000526020600020905b81548152906001019060200180831161055757829003601f168201915b50505050509050919050565b6001600160a01b03851633148061059c575061059c8533610375565b6105b85760405162461bcd60e51b815260040161045690611e94565b6105c58585858585610a37565b5050505050565b6105d46109d1565b6105dc610be1565b565b3360009081526005602052604090205460ff1661060d5760405162461bcd60e51b815260040161045690611ee2565b61062883838360405180602001604052806000815250610c36565b505050565b606081518351146106925760405162461bcd60e51b815260206004820152602960248201527f455243313135353a206163636f756e747320616e6420696473206c656e677468604482015268040dad2e6dac2e8c6d60bb1b6064820152608401610456565b6000835167ffffffffffffffff8111156106ae576106ae6118e8565b6040519080825280602002602001820160405280156106d7578160200160208202803683370190505b50905060005b845181101561074f576107228582815181106106fb576106fb611f37565b602002602001015185838151811061071557610715611f37565b60200260200101516103ef565b82828151811061073457610734611f37565b602090810291909101015261074881611f63565b90506106dd565b509392505050565b6001600160a01b03831633148061077357506107738333610375565b61078f5760405162461bcd60e51b815260040161045690611e94565b610628838383610d90565b6107a26109d1565b6105dc6000610f2d565b6107b46109d1565b6105dc610f7f565b6107c46109d1565b6104e93360028360405180602001604052806000815250610fc2565b6107eb3383836110ab565b5050565b60006107fc8360026103ef565b116108495760405162461bcd60e51b815260206004820152601c60248201527f596f7520646f6e277420616e792073746f6e6520746f206275726e21000000006044820152606401610456565b6108558260028361118b565b816001600160a01b03167f696de425f79f4a40bc6d2122ca50507f0efbeabbff86a84871b7196ab8ea8df78260405161089091815260200190565b60405180910390a25050565b61060d6109d1565b6001600160a01b0385163314806108c057506108c08533610375565b6108dc5760405162461bcd60e51b815260040161045690611e94565b6105c585858585856112a3565b6108f16109d1565b6001600160a01b0381166109565760405162461bcd60e51b815260206004820152602660248201527f4f776e61626c653a206e6577206f776e657220697320746865207a65726f206160448201526564647265737360d01b6064820152608401610456565b6104e981610f2d565b6001600160a01b03831633148061097b575061097b8333610375565b6109975760405162461bcd60e51b815260040161045690611e94565b61062883838361118b565b3360009081526005602052604090205460ff166107c45760405162461bcd60e51b815260040161045690611ee2565b6003546001600160a01b031633146105dc5760405162461bcd60e51b815260206004820181905260248201527f4f776e61626c653a2063616c6c6572206973206e6f7420746865206f776e65726044820152606401610456565b60026107eb8282611fc2565b8151835114610a585760405162461bcd60e51b815260040161045690612082565b6001600160a01b038416610a7e5760405162461bcd60e51b8152600401610456906120ca565b33610a8d8187878787876113db565b60005b8451811015610b73576000858281518110610aad57610aad611f37565b602002602001015190506000858381518110610acb57610acb611f37565b602090810291909101810151600084815280835260408082206001600160a01b038e168352909352919091205490915081811015610b1b5760405162461bcd60e51b81526004016104569061210f565b6000838152602081815260408083206001600160a01b038e8116855292528083208585039055908b16825281208054849290610b58908490612159565b9250508190555050505080610b6c90611f63565b9050610a90565b50846001600160a01b0316866001600160a01b0316826001600160a01b03167f4a39dc06d4c0dbc64b70af90fd698a233a518aa5d07e595d983b8c0526c8f7fb8787604051610bc392919061216c565b60405180910390a4610bd98187878787876113f1565b505050505050565b610be961154c565b6003805460ff60a01b191690557f5db9ee0a495bf2e6ff9c91a7834c1ba4fdd244a5e8aa4e537bd38aeae4b073aa335b6040516001600160a01b03909116815260200160405180910390a1565b6001600160a01b038416610c5c5760405162461bcd60e51b81526004016104569061219a565b8151835114610c7d5760405162461bcd60e51b815260040161045690612082565b33610c8d816000878787876113db565b60005b8451811015610d2857838181518110610cab57610cab611f37565b6020026020010151600080878481518110610cc857610cc8611f37565b602002602001015181526020019081526020016000206000886001600160a01b03166001600160a01b031681526020019081526020016000206000828254610d109190612159565b90915550819050610d2081611f63565b915050610c90565b50846001600160a01b031660006001600160a01b0316826001600160a01b03167f4a39dc06d4c0dbc64b70af90fd698a233a518aa5d07e595d983b8c0526c8f7fb8787604051610d7992919061216c565b60405180910390a46105c5816000878787876113f1565b6001600160a01b038316610db65760405162461bcd60e51b8152600401610456906121db565b8051825114610dd75760405162461bcd60e51b815260040161045690612082565b6000339050610dfa818560008686604051806020016040528060008152506113db565b60005b8351811015610ebf576000848281518110610e1a57610e1a611f37565b602002602001015190506000848381518110610e3857610e38611f37565b602090810291909101810151600084815280835260408082206001600160a01b038c168352909352919091205490915081811015610e885760405162461bcd60e51b81526004016104569061221e565b6000928352602083815260408085206001600160a01b038b1686529091529092209103905580610eb781611f63565b915050610dfd565b5060006001600160a01b0316846001600160a01b0316826001600160a01b03167f4a39dc06d4c0dbc64b70af90fd698a233a518aa5d07e595d983b8c0526c8f7fb8686604051610f1092919061216c565b60405180910390a460408051602081019091526000905250505050565b600380546001600160a01b038381166001600160a01b0319831681179093556040519116919082907f8be0079c531659141344cd1fd0a4f28419497f9722a3daafe3b4186f6b6457e090600090a35050565b610f8761159c565b6003805460ff60a01b1916600160a01b1790557f62e78cea01bee320cd4e420270b5ea74000d11b0c9f74754ebdbfc544b05a258610c193390565b6001600160a01b038416610fe85760405162461bcd60e51b81526004016104569061219a565b336000610ff4856115e9565b90506000611001856115e9565b9050611012836000898585896113db565b6000868152602081815260408083206001600160a01b038b16845290915281208054879290611042908490612159565b909155505060408051878152602081018790526001600160a01b03808a1692600092918716917fc3d58168c5ae7397731d063d5bbf3d657854427343f4c083240f7aacaa2d0f62910160405180910390a46110a283600089898989611634565b50505050505050565b816001600160a01b0316836001600160a01b03160361111e5760405162461bcd60e51b815260206004820152602960248201527f455243313135353a2073657474696e6720617070726f76616c20737461747573604482015268103337b91039b2b63360b91b6064820152608401610456565b6001600160a01b03838116600081815260016020908152604080832094871680845294825291829020805460ff191686151590811790915591519182527f17307eab39ab6107e8899845ad3d59bd9653f200f220920489ca2b5937696c31910160405180910390a3505050565b6001600160a01b0383166111b15760405162461bcd60e51b8152600401610456906121db565b3360006111bd846115e9565b905060006111ca846115e9565b90506111ea838760008585604051806020016040528060008152506113db565b6000858152602081815260408083206001600160a01b038a1684529091529020548481101561122b5760405162461bcd60e51b81526004016104569061221e565b6000868152602081815260408083206001600160a01b038b81168086529184528285208a8703905582518b81529384018a90529092908816917fc3d58168c5ae7397731d063d5bbf3d657854427343f4c083240f7aacaa2d0f62910160405180910390a46040805160208101909152600090526110a2565b6001600160a01b0384166112c95760405162461bcd60e51b8152600401610456906120ca565b3360006112d5856115e9565b905060006112e2856115e9565b90506112f28389898585896113db565b6000868152602081815260408083206001600160a01b038c168452909152902054858110156113335760405162461bcd60e51b81526004016104569061210f565b6000878152602081815260408083206001600160a01b038d8116855292528083208985039055908a16825281208054889290611370908490612159565b909155505060408051888152602081018890526001600160a01b03808b16928c821692918816917fc3d58168c5ae7397731d063d5bbf3d657854427343f4c083240f7aacaa2d0f62910160405180910390a46113d0848a8a8a8a8a611634565b505050505050505050565b6113e361159c565b610bd98686868686866116ef565b6001600160a01b0384163b15610bd95760405163bc197c8160e01b81526001600160a01b0385169063bc197c81906114359089908990889088908890600401612262565b6020604051808303816000875af1925050508015611470575060408051601f3d908101601f1916820190925261146d918101906122c0565b60015b61151c5761147c6122dd565b806308c379a0036114b557506114906122f9565b8061149b57506114b7565b8060405162461bcd60e51b81526004016104569190611a39565b505b60405162461bcd60e51b815260206004820152603460248201527f455243313135353a207472616e7366657220746f206e6f6e2d455243313135356044820152732932b1b2b4bb32b91034b6b83632b6b2b73a32b960611b6064820152608401610456565b6001600160e01b0319811663bc197c8160e01b146110a25760405162461bcd60e51b815260040161045690612383565b600354600160a01b900460ff166105dc5760405162461bcd60e51b815260206004820152601460248201527314185d5cd8589b194e881b9bdd081c185d5cd95960621b6044820152606401610456565b600354600160a01b900460ff16156105dc5760405162461bcd60e51b815260206004820152601060248201526f14185d5cd8589b194e881c185d5cd95960821b6044820152606401610456565b6040805160018082528183019092526060916000919060208083019080368337019050509050828160008151811061162357611623611f37565b602090810291909101015292915050565b6001600160a01b0384163b15610bd95760405163f23a6e6160e01b81526001600160a01b0385169063f23a6e619061167890899089908890889088906004016123cb565b6020604051808303816000875af19250505080156116b3575060408051601f3d908101601f191682019092526116b0918101906122c0565b60015b6116bf5761147c6122dd565b6001600160e01b0319811663f23a6e6160e01b146110a25760405162461bcd60e51b815260040161045690612383565b6001600160a01b0385166117765760005b83518110156117745782818151811061171b5761171b611f37565b60200260200101516004600086848151811061173957611739611f37565b60200260200101518152602001908152602001600020600082825461175e9190612159565b9091555061176d905081611f63565b9050611700565b505b6001600160a01b038416610bd95760005b83518110156110a25760008482815181106117a4576117a4611f37565b6020026020010151905060008483815181106117c2576117c2611f37565b60200260200101519050600060046000848152602001908152602001600020549050818110156118455760405162461bcd60e51b815260206004820152602860248201527f455243313135353a206275726e20616d6f756e74206578636565647320746f74604482015267616c537570706c7960c01b6064820152608401610456565b6000928352600460205260409092209103905561186181611f63565b9050611787565b80356001600160a01b038116811461187f57600080fd5b919050565b6000806040838503121561189757600080fd5b6118a083611868565b946020939093013593505050565b6001600160e01b0319811681146104e957600080fd5b6000602082840312156118d657600080fd5b81356118e1816118ae565b9392505050565b634e487b7160e01b600052604160045260246000fd5b601f8201601f1916810167ffffffffffffffff81118282101715611924576119246118e8565b6040525050565b600067ffffffffffffffff831115611945576119456118e8565b60405161195c601f8501601f1916602001826118fe565b80915083815284848401111561197157600080fd5b83836020830137600060208583010152509392505050565b60006020828403121561199b57600080fd5b813567ffffffffffffffff8111156119b257600080fd5b8201601f810184136119c357600080fd5b6119d28482356020840161192b565b949350505050565b6000602082840312156119ec57600080fd5b5035919050565b6000815180845260005b81811015611a19576020818501810151868301820152016119fd565b506000602082860101526020601f19601f83011685010191505092915050565b6020815260006118e160208301846119f3565b600067ffffffffffffffff821115611a6657611a666118e8565b5060051b60200190565b600082601f830112611a8157600080fd5b81356020611a8e82611a4c565b604051611a9b82826118fe565b83815260059390931b8501820192828101915086841115611abb57600080fd5b8286015b84811015611ad65780358352918301918301611abf565b509695505050505050565b600082601f830112611af257600080fd5b6118e18383356020850161192b565b600080600080600060a08688031215611b1957600080fd5b611b2286611868565b9450611b3060208701611868565b9350604086013567ffffffffffffffff80821115611b4d57600080fd5b611b5989838a01611a70565b94506060880135915080821115611b6f57600080fd5b611b7b89838a01611a70565b93506080880135915080821115611b9157600080fd5b50611b9e88828901611ae1565b9150509295509295909350565b600080600060608486031215611bc057600080fd5b611bc984611868565b9250602084013567ffffffffffffffff80821115611be657600080fd5b611bf287838801611a70565b93506040860135915080821115611c0857600080fd5b50611c1586828701611a70565b9150509250925092565b60008060408385031215611c3257600080fd5b823567ffffffffffffffff80821115611c4a57600080fd5b818501915085601f830112611c5e57600080fd5b81356020611c6b82611a4c565b604051611c7882826118fe565b83815260059390931b8501820192828101915089841115611c9857600080fd5b948201945b83861015611cbd57611cae86611868565b82529482019490820190611c9d565b96505086013592505080821115611cd357600080fd5b50611ce085828601611a70565b9150509250929050565b600081518084526020808501945080840160005b83811015611d1a57815187529582019590820190600101611cfe565b509495945050505050565b6020815260006118e16020830184611cea565b600060208284031215611d4a57600080fd5b6118e182611868565b60008060408385031215611d6657600080fd5b611d6f83611868565b915060208301358015158114611d8457600080fd5b809150509250929050565b60008060408385031215611da257600080fd5b611dab83611868565b9150611db960208401611868565b90509250929050565b600080600080600060a08688031215611dda57600080fd5b611de386611868565b9450611df160208701611868565b93506040860135925060608601359150608086013567ffffffffffffffff811115611e1b57600080fd5b611b9e88828901611ae1565b600080600060608486031215611e3c57600080fd5b611e4584611868565b95602085013595506040909401359392505050565b600181811c90821680611e6e57607f821691505b602082108103611e8e57634e487b7160e01b600052602260045260246000fd5b50919050565b6020808252602e908201527f455243313135353a2063616c6c6572206973206e6f7420746f6b656e206f776e60408201526d195c881bdc88185c1c1c9bdd995960921b606082015260800190565b60208082526035908201527f43616c6c657220646f6573206e6f742068617665207065726d697373696f6e206040820152743a379031b0b636103a3434b990333ab731ba34b7b760591b606082015260800190565b634e487b7160e01b600052603260045260246000fd5b634e487b7160e01b600052601160045260246000fd5b600060018201611f7557611f75611f4d565b5060010190565b601f82111561062857600081815260208120601f850160051c81016020861015611fa35750805b601f850160051c820191505b81811015610bd957828155600101611faf565b815167ffffffffffffffff811115611fdc57611fdc6118e8565b611ff081611fea8454611e5a565b84611f7c565b602080601f831160018114612025576000841561200d5750858301515b600019600386901b1c1916600185901b178555610bd9565b600085815260208120601f198616915b8281101561205457888601518255948401946001909101908401612035565b50858210156120725787850151600019600388901b60f8161c191681555b5050505050600190811b01905550565b60208082526028908201527f455243313135353a2069647320616e6420616d6f756e7473206c656e677468206040820152670dad2e6dac2e8c6d60c31b606082015260800190565b60208082526025908201527f455243313135353a207472616e7366657220746f20746865207a65726f206164604082015264647265737360d81b606082015260800190565b6020808252602a908201527f455243313135353a20696e73756666696369656e742062616c616e636520666f60408201526939103a3930b739b332b960b11b606082015260800190565b8082018082111561048257610482611f4d565b60408152600061217f6040830185611cea565b82810360208401526121918185611cea565b95945050505050565b60208082526021908201527f455243313135353a206d696e7420746f20746865207a65726f206164647265736040820152607360f81b606082015260800190565b60208082526023908201527f455243313135353a206275726e2066726f6d20746865207a65726f206164647260408201526265737360e81b606082015260800190565b60208082526024908201527f455243313135353a206275726e20616d6f756e7420657863656564732062616c604082015263616e636560e01b606082015260800190565b6001600160a01b0386811682528516602082015260a06040820181905260009061228e90830186611cea565b82810360608401526122a08186611cea565b905082810360808401526122b481856119f3565b98975050505050505050565b6000602082840312156122d257600080fd5b81516118e1816118ae565b600060033d11156122f65760046000803e5060005160e01c5b90565b600060443d10156123075790565b6040516003193d81016004833e81513d67ffffffffffffffff816024840111818411171561233757505050505090565b828501915081518181111561234f5750505050505090565b843d87010160208285010111156123695750505050505090565b612378602082860101876118fe565b509095945050505050565b60208082526028908201527f455243313135353a204552433131353552656365697665722072656a656374656040820152676420746f6b656e7360c01b606082015260800190565b6001600160a01b03868116825285166020820152604081018490526060810183905260a060808201819052600090612405908301846119f3565b97965050505050505056fea2646970667358221220c586340ebbcdd6df6789f8edc25d8c87467671a07f31039f9d4995c34f2424ed64736f6c6343000813003368747470733a2f2f697066732e696f2f697066732f516d6139716f5766594c4b31677772656a706b3773743477743756383259786f4479394d774c45534834486b59342f7b69647d2e6a736f6e",
  "linkReferences": {},
  "deployedLinkReferences": {}
}