{
  "_format": "hh-sol-artifact-1",
  "contractName": "VoxelVerseResources",
  "sourceName": "contracts/VoxelVerseResources.sol",
  "abi": [
    {
      "inputs": [],
      "stateMutability": "nonpayable",
      "type": "constructor"
    },
    {
      "anonymous": false,
      "inputs": [
        {
          "indexed": true,
          "internalType": "address",
          "name": "account",
          "type": "address"
        },
        {
          "indexed": true,
          "internalType": "address",
          "name": "operator",
          "type": "address"
        },
        {
          "indexed": false,
          "internalType": "bool",
          "name": "approved",
          "type": "bool"
        }
      ],
      "name": "ApprovalForAll",
      "type": "event"
    },
    {
      "anonymous": false,
      "inputs": [
        {
          "indexed": true,
          "internalType": "address",
          "name": "player",
          "type": "address"
        },
        {
          "indexed": false,
          "internalType": "uint256",
          "name": "id",
          "type": "uint256"
        },
        {
          "indexed": false,
          "internalType": "uint256",
          "name": "amount",
          "type": "uint256"
        }
      ],
      "name": "Burned",
      "type": "event"
    },
    {
      "anonymous": false,
      "inputs": [
        {
          "indexed": true,
          "internalType": "address",
          "name": "previousOwner",
          "type": "address"
        },
        {
          "indexed": true,
          "internalType": "address",
          "name": "newOwner",
          "type": "address"
        }
      ],
      "name": "OwnershipTransferred",
      "type": "event"
    },
    {
      "anonymous": false,
      "inputs": [
        {
          "indexed": false,
          "internalType": "address",
          "name": "account",
          "type": "address"
        }
      ],
      "name": "Paused",
      "type": "event"
    },
    {
      "anonymous": false,
      "inputs": [
        {
          "indexed": true,
          "internalType": "address",
          "name": "operator",
          "type": "address"
        },
        {
          "indexed": true,
          "internalType": "address",
          "name": "from",
          "type": "address"
        },
        {
          "indexed": true,
          "internalType": "address",
          "name": "to",
          "type": "address"
        },
        {
          "indexed": false,
          "internalType": "uint256[]",
          "name": "ids",
          "type": "uint256[]"
        },
        {
          "indexed": false,
          "internalType": "uint256[]",
          "name": "values",
          "type": "uint256[]"
        }
      ],
      "name": "TransferBatch",
      "type": "event"
    },
    {
      "anonymous": false,
      "inputs": [
        {
          "indexed": true,
          "internalType": "address",
          "name": "operator",
          "type": "address"
        },
        {
          "indexed": true,
          "internalType": "address",
          "name": "from",
          "type": "address"
        },
        {
          "indexed": true,
          "internalType": "address",
          "name": "to",
          "type": "address"
        },
        {
          "indexed": false,
          "internalType": "uint256",
          "name": "id",
          "type": "uint256"
        },
        {
          "indexed": false,
          "internalType": "uint256",
          "name": "value",
          "type": "uint256"
        }
      ],
      "name": "TransferSingle",
      "type": "event"
    },
    {
      "anonymous": false,
      "inputs": [
        {
          "indexed": false,
          "internalType": "string",
          "name": "value",
          "type": "string"
        },
        {
          "indexed": true,
          "internalType": "uint256",
          "name": "id",
          "type": "uint256"
        }
      ],
      "name": "URI",
      "type": "event"
    },
    {
      "anonymous": false,
      "inputs": [
        {
          "indexed": false,
          "internalType": "address",
          "name": "account",
          "type": "address"
        }
      ],
      "name": "Unpaused",
      "type": "event"
    },
    {
      "inputs": [
        {
          "internalType": "address",
          "name": "",
          "type": "address"
        }
      ],
      "name": "allowedContracts",
      "outputs": [
        {
          "internalType": "bool",
          "name": "",
          "type": "bool"
        }
      ],
      "stateMutability": "view",
      "type": "function"
    },
    {
      "inputs": [
        {
          "internalType": "address",
          "name": "account",
          "type": "address"
        },
        {
          "internalType": "uint256",
          "name": "id",
          "type": "uint256"
        }
      ],
      "name": "balanceOf",
      "outputs": [
        {
          "internalType": "uint256",
          "name": "",
          "type": "uint256"
        }
      ],
      "stateMutability": "view",
      "type": "function"
    },
    {
      "inputs": [
        {
          "internalType": "address[]",
          "name": "accounts",
          "type": "address[]"
        },
        {
          "internalType": "uint256[]",
          "name": "ids",
          "type": "uint256[]"
        }
      ],
      "name": "balanceOfBatch",
      "outputs": [
        {
          "internalType": "uint256[]",
          "name": "",
          "type": "uint256[]"
        }
      ],
      "stateMutability": "view",
      "type": "function"
    },
    {
      "inputs": [
        {
          "internalType": "address",
          "name": "account",
          "type": "address"
        },
        {
          "internalType": "uint256",
          "name": "id",
          "type": "uint256"
        },
        {
          "internalType": "uint256",
          "name": "value",
          "type": "uint256"
        }
      ],
      "name": "burn",
      "outputs": [],
      "stateMutability": "nonpayable",
      "type": "function"
    },
    {
      "inputs": [
        {
          "internalType": "address",
          "name": "account",
          "type": "address"
        },
        {
          "internalType": "uint256[]",
          "name": "ids",
          "type": "uint256[]"
        },
        {
          "internalType": "uint256[]",
          "name": "values",
          "type": "uint256[]"
        }
      ],
      "name": "burnBatch",
      "outputs": [],
      "stateMutability": "nonpayable",
      "type": "function"
    },
    {
      "inputs": [
        {
          "internalType": "address",
          "name": "user",
          "type": "address"
        },
        {
          "internalType": "uint256",
          "name": "id",
          "type": "uint256"
        },
        {
          "internalType": "uint256",
          "name": "amount",
          "type": "uint256"
        }
      ],
      "name": "burnResource",
      "outputs": [],
      "stateMutability": "nonpayable",
      "type": "function"
    },
    {
      "inputs": [
        {
          "internalType": "uint256",
          "name": "amount",
          "type": "uint256"
        }
      ],
      "name": "contractMint",
      "outputs": [],
      "stateMutability": "nonpayable",
      "type": "function"
    },
    {
      "inputs": [
        {
          "internalType": "address",
          "name": "to",
          "type": "address"
        },
        {
          "internalType": "uint256[]",
          "name": "ids",
          "type": "uint256[]"
        },
        {
          "internalType": "uint256[]",
          "name": "amounts",
          "type": "uint256[]"
        }
      ],
      "name": "contractMintBatch",
      "outputs": [],
      "stateMutability": "nonpayable",
      "type": "function"
    },
    {
      "inputs": [
        {
          "internalType": "uint256",
          "name": "id",
          "type": "uint256"
        }
      ],
      "name": "exists",
      "outputs": [
        {
          "internalType": "bool",
          "name": "",
          "type": "bool"
        }
      ],
      "stateMutability": "view",
      "type": "function"
    },
    {
      "inputs": [],
      "name": "gold",
      "outputs": [
        {
          "internalType": "uint256",
          "name": "",
          "type": "uint256"
        }
      ],
      "stateMutability": "view",
      "type": "function"
    },
    {
      "inputs": [],
      "name": "grass",
      "outputs": [
        {
          "internalType": "uint256",
          "name": "",
          "type": "uint256"
        }
      ],
      "stateMutability": "view",
      "type": "function"
    },
    {
      "inputs": [],
      "name": "iron",
      "outputs": [
        {
          "internalType": "uint256",
          "name": "",
          "type": "uint256"
        }
      ],
      "stateMutability": "view",
      "type": "function"
    },
    {
      "inputs": [
        {
          "internalType": "address",
          "name": "account",
          "type": "address"
        },
        {
          "internalType": "address",
          "name": "operator",
          "type": "address"
        }
      ],
      "name": "isApprovedForAll",
      "outputs": [
        {
          "internalType": "bool",
          "name": "",
          "type": "bool"
        }
      ],
      "stateMutability": "view",
      "type": "function"
    },
    {
      "inputs": [
        {
          "internalType": "address",
          "name": "to",
          "type": "address"
        },
        {
          "internalType": "uint256",
          "name": "id",
          "type": "uint256"
        },
        {
          "internalType": "uint256",
          "name": "amount",
          "type": "uint256"
        }
      ],
      "name": "mint",
      "outputs": [],
      "stateMutability": "nonpayable",
      "type": "function"
    },
    {
      "inputs": [
        {
          "internalType": "address",
          "name": "to",
          "type": "address"
        },
        {
          "internalType": "uint256[]",
          "name": "ids",
          "type": "uint256[]"
        },
        {
          "internalType": "uint256[]",
          "name": "amounts",
          "type": "uint256[]"
        }
      ],
      "name": "mintBatch",
      "outputs": [],
      "stateMutability": "nonpayable",
      "type": "function"
    },
    {
      "inputs": [],
      "name": "owner",
      "outputs": [
        {
          "internalType": "address",
          "name": "",
          "type": "address"
        }
      ],
      "stateMutability": "view",
      "type": "function"
    },
    {
      "inputs": [],
      "name": "pause",
      "outputs": [],
      "stateMutability": "nonpayable",
      "type": "function"
    },
    {
      "inputs": [],
      "name": "paused",
      "outputs": [
        {
          "internalType": "bool",
          "name": "",
          "type": "bool"
        }
      ],
      "stateMutability": "view",
      "type": "function"
    },
    {
      "inputs": [],
      "name": "renounceOwnership",
      "outputs": [],
      "stateMutability": "nonpayable",
      "type": "function"
    },
    {
      "inputs": [
        {
          "internalType": "address",
          "name": "from",
          "type": "address"
        },
        {
          "internalType": "address",
          "name": "to",
          "type": "address"
        },
        {
          "internalType": "uint256[]",
          "name": "ids",
          "type": "uint256[]"
        },
        {
          "internalType": "uint256[]",
          "name": "amounts",
          "type": "uint256[]"
        },
        {
          "internalType": "bytes",
          "name": "data",
          "type": "bytes"
        }
      ],
      "name": "safeBatchTransferFrom",
      "outputs": [],
      "stateMutability": "nonpayable",
      "type": "function"
    },
    {
      "inputs": [
        {
          "internalType": "address",
          "name": "from",
          "type": "address"
        },
        {
          "internalType": "address",
          "name": "to",
          "type": "address"
        },
        {
          "internalType": "uint256",
          "name": "id",
          "type": "uint256"
        },
        {
          "internalType": "uint256",
          "name": "amount",
          "type": "uint256"
        },
        {
          "internalType": "bytes",
          "name": "data",
          "type": "bytes"
        }
      ],
      "name": "safeTransferFrom",
      "outputs": [],
      "stateMutability": "nonpayable",
      "type": "function"
    },
    {
      "inputs": [
        {
          "internalType": "address",
          "name": "operator",
          "type": "address"
        },
        {
          "internalType": "bool",
          "name": "approved",
          "type": "bool"
        }
      ],
      "name": "setApprovalForAll",
      "outputs": [],
      "stateMutability": "nonpayable",
      "type": "function"
    },
    {
      "inputs": [
        {
          "internalType": "string",
          "name": "newuri",
          "type": "string"
        }
      ],
      "name": "setURI",
      "outputs": [],
      "stateMutability": "nonpayable",
      "type": "function"
    },
    {
      "inputs": [],
      "name": "stone",
      "outputs": [
        {
          "internalType": "uint256",
          "name": "",
          "type": "uint256"
        }
      ],
      "stateMutability": "view",
      "type": "function"
    },
    {
      "inputs": [
        {
          "internalType": "bytes4",
          "name": "interfaceId",
          "type": "bytes4"
        }
      ],
      "name": "supportsInterface",
      "outputs": [
        {
          "internalType": "bool",
          "name": "",
          "type": "bool"
        }
      ],
      "stateMutability": "view",
      "type": "function"
    },
    {
      "inputs": [
        {
          "internalType": "uint256",
          "name": "id",
          "type": "uint256"
        }
      ],
      "name": "totalSupply",
      "outputs": [
        {
          "internalType": "uint256",
          "name": "",
          "type": "uint256"
        }
      ],
      "stateMutability": "view",
      "type": "function"
    },
    {
      "inputs": [
        {
          "internalType": "address",
          "name": "newOwner",
          "type": "address"
        }
      ],
      "name": "transferOwnership",
      "outputs": [],
      "stateMutability": "nonpayable",
      "type": "function"
    },
    {
      "inputs": [],
      "name": "unpause",
      "outputs": [],
      "stateMutability": "nonpayable",
      "type": "function"
    },
    {
      "inputs": [
        {
          "internalType": "uint256",
          "name": "",
          "type": "uint256"
        }
      ],
      "name": "uri",
      "outputs": [
        {
          "internalType": "string",
          "name": "",
          "type": "string"
        }
      ],
      "stateMutability": "view",
      "type": "function"
    },
    {
      "inputs": [],
      "name": "wood",
      "outputs": [
        {
          "internalType": "uint256",
          "name": "",
          "type": "uint256"
        }
      ],
      "stateMutability": "view",
      "type": "function"
    }
  ],
  "bytecode": "0x60806040523480156200001157600080fd5b506040518060800160405280604d815260200162002708604d9139620000378162000056565b50620000433362000068565b6003805460ff60a01b191690556200022b565b60026200006482826200015f565b5050565b600380546001600160a01b038381166001600160a01b0319831681179093556040519116919082907f8be0079c531659141344cd1fd0a4f28419497f9722a3daafe3b4186f6b6457e090600090a35050565b634e487b7160e01b600052604160045260246000fd5b600181811c90821680620000e557607f821691505b6020821081036200010657634e487b7160e01b600052602260045260246000fd5b50919050565b601f8211156200015a57600081815260208120601f850160051c81016020861015620001355750805b601f850160051c820191505b81811015620001565782815560010162000141565b5050505b505050565b81516001600160401b038111156200017b576200017b620000ba565b62000193816200018c8454620000d0565b846200010c565b602080601f831160018114620001cb5760008415620001b25750858301515b600019600386901b1c1916600185901b17855562000156565b600085815260208120601f198616915b82811015620001fc57888601518255948401946001909101908401620001db565b50858210156200021b5787850151600019600388901b60f8161c191681555b5050505050600190811b01905550565b6124cd806200023b6000396000f3fe608060405234801561001057600080fd5b50600436106101d95760003560e01c80636b20c45411610104578063bd85b039116100a2578063f2fde38b11610071578063f2fde38b1461041a578063f5298aca1461042d578063f610372b14610440578063fbec6f211461045357600080fd5b8063bd85b03914610398578063d81d0a15146103b8578063e985e9c5146103cb578063f242432a1461040757600080fd5b80637b5f8912116100de5780637b5f89121461035a5780638456cb59146103625780638da5cb5b1461036a578063a22cb4651461038557600080fd5b80636b20c4541461032c57806370dbd4481461033f578063715018a61461035257600080fd5b80632eb2c2d61161017c5780634f558e791161014b5780634f558e79146102cd57806351e0e26b146102ef5780635c975abb14610312578063604b83b41461032457600080fd5b80632eb2c2d61461027f5780633f4ba83a14610292578063436679b41461029a5780634e1273f4146102ad57600080fd5b806302fe5305116101b857806302fe53051461022f5780630ca7e3f3146102445780630e89341c1461024c578063156e29f61461026c57600080fd5b8062fdd58e146101de5780630167eb851461020457806301ffc9a71461020c575b600080fd5b6101f16101ec36600461190b565b61045b565b6040519081526020015b60405180910390f35b6101f1600181565b61021f61021a36600461194b565b6104f4565b60405190151581526020016101fb565b61024261023d366004611a10565b610544565b005b6101f1600481565b61025f61025a366004611a61565b610558565b6040516101fb9190611ac0565b61024261027a366004611ad3565b6105ec565b61024261028d366004611bbb565b610614565b610242610660565b6102426102a8366004611c65565b610672565b6102c06102bb366004611cd9565b6106bc565b6040516101fb9190611ddf565b61021f6102db366004611a61565b600090815260046020526040902054151590565b61021f6102fd366004611df2565b60056020526000908152604090205460ff1681565b600354600160a01b900460ff1661021f565b6101f1600281565b61024261033a366004611c65565b6107e6565b61024261034d366004611ad3565b610829565b6102426108d6565b6101f1600081565b6102426108e8565b6003546040516001600160a01b0390911681526020016101fb565b610242610393366004611e0d565b6108f8565b6101f16103a6366004611a61565b60009081526004602052604090205490565b6102426103c6366004611c65565b610907565b61021f6103d9366004611e49565b6001600160a01b03918216600090815260016020908152604080832093909416825291909152205460ff1690565b610242610415366004611e7c565b61090f565b610242610428366004611df2565b610954565b61024261043b366004611ad3565b6109ca565b61024261044e366004611a61565b610a0d565b6101f1600381565b60006001600160a01b0383166104cb5760405162461bcd60e51b815260206004820152602a60248201527f455243313135353a2061646472657373207a65726f206973206e6f742061207660448201526930b634b21037bbb732b960b11b60648201526084015b60405180910390fd5b506000818152602081815260408083206001600160a01b03861684529091529020545b92915050565b60006001600160e01b03198216636cdb3d1360e11b148061052557506001600160e01b031982166303a24d0760e21b145b806104ee57506301ffc9a760e01b6001600160e01b03198316146104ee565b61054c610a58565b61055581610ab2565b50565b60606002805461056790611ee1565b80601f016020809104026020016040519081016040528092919081815260200182805461059390611ee1565b80156105e05780601f106105b5576101008083540402835291602001916105e0565b820191906000526020600020905b8154815290600101906020018083116105c357829003601f168201915b50505050509050919050565b6105f4610a58565b61060f83838360405180602001604052806000815250610abe565b505050565b6001600160a01b038516331480610630575061063085336103d9565b61064c5760405162461bcd60e51b81526004016104c290611f1b565b6106598585858585610ba7565b5050505050565b610668610a58565b610670610d51565b565b3360009081526005602052604090205460ff166106a15760405162461bcd60e51b81526004016104c290611f69565b61060f83838360405180602001604052806000815250610da6565b606081518351146107215760405162461bcd60e51b815260206004820152602960248201527f455243313135353a206163636f756e747320616e6420696473206c656e677468604482015268040dad2e6dac2e8c6d60bb1b60648201526084016104c2565b6000835167ffffffffffffffff81111561073d5761073d61196f565b604051908082528060200260200182016040528015610766578160200160208202803683370190505b50905060005b84518110156107de576107b185828151811061078a5761078a611fbe565b60200260200101518583815181106107a4576107a4611fbe565b602002602001015161045b565b8282815181106107c3576107c3611fbe565b60209081029190910101526107d781611fea565b905061076c565b509392505050565b6001600160a01b038316331480610802575061080283336103d9565b61081e5760405162461bcd60e51b81526004016104c290611f1b565b61060f838383610f00565b6000610835848461045b565b116108825760405162461bcd60e51b815260206004820152601b60248201527f596f7520646f6e277420616e7920776f6f6420746f206275726e21000000000060448201526064016104c2565b61088d83838361109d565b60408051838152602081018390526001600160a01b038516917f23ff0e75edf108e3d0392d92e13e8c8a868ef19001bd49f9e94876dc46dff87f910160405180910390a2505050565b6108de610a58565b61067060006111b5565b6108f0610a58565b610670611207565b61090333838361124a565b5050565b6106a1610a58565b6001600160a01b03851633148061092b575061092b85336103d9565b6109475760405162461bcd60e51b81526004016104c290611f1b565b610659858585858561132a565b61095c610a58565b6001600160a01b0381166109c15760405162461bcd60e51b815260206004820152602660248201527f4f776e61626c653a206e6577206f776e657220697320746865207a65726f206160448201526564647265737360d01b60648201526084016104c2565b610555816111b5565b6001600160a01b0383163314806109e657506109e683336103d9565b610a025760405162461bcd60e51b81526004016104c290611f1b565b61060f83838361109d565b3360009081526005602052604090205460ff16610a3c5760405162461bcd60e51b81526004016104c290611f69565b6105553360018360405180602001604052806000815250610abe565b6003546001600160a01b031633146106705760405162461bcd60e51b815260206004820181905260248201527f4f776e61626c653a2063616c6c6572206973206e6f7420746865206f776e657260448201526064016104c2565b60026109038282612049565b6001600160a01b038416610ae45760405162461bcd60e51b81526004016104c290612109565b336000610af085611462565b90506000610afd85611462565b9050610b0e836000898585896114ad565b6000868152602081815260408083206001600160a01b038b16845290915281208054879290610b3e90849061214a565b909155505060408051878152602081018790526001600160a01b03808a1692600092918716917fc3d58168c5ae7397731d063d5bbf3d657854427343f4c083240f7aacaa2d0f62910160405180910390a4610b9e836000898989896114c3565b50505050505050565b8151835114610bc85760405162461bcd60e51b81526004016104c29061215d565b6001600160a01b038416610bee5760405162461bcd60e51b81526004016104c2906121a5565b33610bfd8187878787876114ad565b60005b8451811015610ce3576000858281518110610c1d57610c1d611fbe565b602002602001015190506000858381518110610c3b57610c3b611fbe565b602090810291909101810151600084815280835260408082206001600160a01b038e168352909352919091205490915081811015610c8b5760405162461bcd60e51b81526004016104c2906121ea565b6000838152602081815260408083206001600160a01b038e8116855292528083208585039055908b16825281208054849290610cc890849061214a565b9250508190555050505080610cdc90611fea565b9050610c00565b50846001600160a01b0316866001600160a01b0316826001600160a01b03167f4a39dc06d4c0dbc64b70af90fd698a233a518aa5d07e595d983b8c0526c8f7fb8787604051610d33929190612234565b60405180910390a4610d4981878787878761161e565b505050505050565b610d596116d9565b6003805460ff60a01b191690557f5db9ee0a495bf2e6ff9c91a7834c1ba4fdd244a5e8aa4e537bd38aeae4b073aa335b6040516001600160a01b03909116815260200160405180910390a1565b6001600160a01b038416610dcc5760405162461bcd60e51b81526004016104c290612109565b8151835114610ded5760405162461bcd60e51b81526004016104c29061215d565b33610dfd816000878787876114ad565b60005b8451811015610e9857838181518110610e1b57610e1b611fbe565b6020026020010151600080878481518110610e3857610e38611fbe565b602002602001015181526020019081526020016000206000886001600160a01b03166001600160a01b031681526020019081526020016000206000828254610e80919061214a565b90915550819050610e9081611fea565b915050610e00565b50846001600160a01b031660006001600160a01b0316826001600160a01b03167f4a39dc06d4c0dbc64b70af90fd698a233a518aa5d07e595d983b8c0526c8f7fb8787604051610ee9929190612234565b60405180910390a46106598160008787878761161e565b6001600160a01b038316610f265760405162461bcd60e51b81526004016104c290612262565b8051825114610f475760405162461bcd60e51b81526004016104c29061215d565b6000339050610f6a818560008686604051806020016040528060008152506114ad565b60005b835181101561102f576000848281518110610f8a57610f8a611fbe565b602002602001015190506000848381518110610fa857610fa8611fbe565b602090810291909101810151600084815280835260408082206001600160a01b038c168352909352919091205490915081811015610ff85760405162461bcd60e51b81526004016104c2906122a5565b6000928352602083815260408085206001600160a01b038b168652909152909220910390558061102781611fea565b915050610f6d565b5060006001600160a01b0316846001600160a01b0316826001600160a01b03167f4a39dc06d4c0dbc64b70af90fd698a233a518aa5d07e595d983b8c0526c8f7fb8686604051611080929190612234565b60405180910390a460408051602081019091526000905250505050565b6001600160a01b0383166110c35760405162461bcd60e51b81526004016104c290612262565b3360006110cf84611462565b905060006110dc84611462565b90506110fc838760008585604051806020016040528060008152506114ad565b6000858152602081815260408083206001600160a01b038a1684529091529020548481101561113d5760405162461bcd60e51b81526004016104c2906122a5565b6000868152602081815260408083206001600160a01b038b81168086529184528285208a8703905582518b81529384018a90529092908816917fc3d58168c5ae7397731d063d5bbf3d657854427343f4c083240f7aacaa2d0f62910160405180910390a4604080516020810190915260009052610b9e565b600380546001600160a01b038381166001600160a01b0319831681179093556040519116919082907f8be0079c531659141344cd1fd0a4f28419497f9722a3daafe3b4186f6b6457e090600090a35050565b61120f611729565b6003805460ff60a01b1916600160a01b1790557f62e78cea01bee320cd4e420270b5ea74000d11b0c9f74754ebdbfc544b05a258610d893390565b816001600160a01b0316836001600160a01b0316036112bd5760405162461bcd60e51b815260206004820152602960248201527f455243313135353a2073657474696e6720617070726f76616c20737461747573604482015268103337b91039b2b63360b91b60648201526084016104c2565b6001600160a01b03838116600081815260016020908152604080832094871680845294825291829020805460ff191686151590811790915591519182527f17307eab39ab6107e8899845ad3d59bd9653f200f220920489ca2b5937696c31910160405180910390a3505050565b6001600160a01b0384166113505760405162461bcd60e51b81526004016104c2906121a5565b33600061135c85611462565b9050600061136985611462565b90506113798389898585896114ad565b6000868152602081815260408083206001600160a01b038c168452909152902054858110156113ba5760405162461bcd60e51b81526004016104c2906121ea565b6000878152602081815260408083206001600160a01b038d8116855292528083208985039055908a168252812080548892906113f790849061214a565b909155505060408051888152602081018890526001600160a01b03808b16928c821692918816917fc3d58168c5ae7397731d063d5bbf3d657854427343f4c083240f7aacaa2d0f62910160405180910390a4611457848a8a8a8a8a6114c3565b505050505050505050565b6040805160018082528183019092526060916000919060208083019080368337019050509050828160008151811061149c5761149c611fbe565b602090810291909101015292915050565b6114b5611729565b610d49868686868686611776565b6001600160a01b0384163b15610d495760405163f23a6e6160e01b81526001600160a01b0385169063f23a6e619061150790899089908890889088906004016122e9565b6020604051808303816000875af1925050508015611542575060408051601f3d908101601f1916820190925261153f9181019061232e565b60015b6115ee5761154e61234b565b806308c379a0036115875750611562612367565b8061156d5750611589565b8060405162461bcd60e51b81526004016104c29190611ac0565b505b60405162461bcd60e51b815260206004820152603460248201527f455243313135353a207472616e7366657220746f206e6f6e2d455243313135356044820152732932b1b2b4bb32b91034b6b83632b6b2b73a32b960611b60648201526084016104c2565b6001600160e01b0319811663f23a6e6160e01b14610b9e5760405162461bcd60e51b81526004016104c2906123f1565b6001600160a01b0384163b15610d495760405163bc197c8160e01b81526001600160a01b0385169063bc197c81906116629089908990889088908890600401612439565b6020604051808303816000875af192505050801561169d575060408051601f3d908101601f1916820190925261169a9181019061232e565b60015b6116a95761154e61234b565b6001600160e01b0319811663bc197c8160e01b14610b9e5760405162461bcd60e51b81526004016104c2906123f1565b600354600160a01b900460ff166106705760405162461bcd60e51b815260206004820152601460248201527314185d5cd8589b194e881b9bdd081c185d5cd95960621b60448201526064016104c2565b600354600160a01b900460ff16156106705760405162461bcd60e51b815260206004820152601060248201526f14185d5cd8589b194e881c185d5cd95960821b60448201526064016104c2565b6001600160a01b0385166117fd5760005b83518110156117fb578281815181106117a2576117a2611fbe565b6020026020010151600460008684815181106117c0576117c0611fbe565b6020026020010151815260200190815260200160002060008282546117e5919061214a565b909155506117f4905081611fea565b9050611787565b505b6001600160a01b038416610d495760005b8351811015610b9e57600084828151811061182b5761182b611fbe565b60200260200101519050600084838151811061184957611849611fbe565b60200260200101519050600060046000848152602001908152602001600020549050818110156118cc5760405162461bcd60e51b815260206004820152602860248201527f455243313135353a206275726e20616d6f756e74206578636565647320746f74604482015267616c537570706c7960c01b60648201526084016104c2565b600092835260046020526040909220910390556118e881611fea565b905061180e565b80356001600160a01b038116811461190657600080fd5b919050565b6000806040838503121561191e57600080fd5b611927836118ef565b946020939093013593505050565b6001600160e01b03198116811461055557600080fd5b60006020828403121561195d57600080fd5b813561196881611935565b9392505050565b634e487b7160e01b600052604160045260246000fd5b601f8201601f1916810167ffffffffffffffff811182821017156119ab576119ab61196f565b6040525050565b600067ffffffffffffffff8311156119cc576119cc61196f565b6040516119e3601f8501601f191660200182611985565b8091508381528484840111156119f857600080fd5b83836020830137600060208583010152509392505050565b600060208284031215611a2257600080fd5b813567ffffffffffffffff811115611a3957600080fd5b8201601f81018413611a4a57600080fd5b611a59848235602084016119b2565b949350505050565b600060208284031215611a7357600080fd5b5035919050565b6000815180845260005b81811015611aa057602081850181015186830182015201611a84565b506000602082860101526020601f19601f83011685010191505092915050565b6020815260006119686020830184611a7a565b600080600060608486031215611ae857600080fd5b611af1846118ef565b95602085013595506040909401359392505050565b600067ffffffffffffffff821115611b2057611b2061196f565b5060051b60200190565b600082601f830112611b3b57600080fd5b81356020611b4882611b06565b604051611b558282611985565b83815260059390931b8501820192828101915086841115611b7557600080fd5b8286015b84811015611b905780358352918301918301611b79565b509695505050505050565b600082601f830112611bac57600080fd5b611968838335602085016119b2565b600080600080600060a08688031215611bd357600080fd5b611bdc866118ef565b9450611bea602087016118ef565b9350604086013567ffffffffffffffff80821115611c0757600080fd5b611c1389838a01611b2a565b94506060880135915080821115611c2957600080fd5b611c3589838a01611b2a565b93506080880135915080821115611c4b57600080fd5b50611c5888828901611b9b565b9150509295509295909350565b600080600060608486031215611c7a57600080fd5b611c83846118ef565b9250602084013567ffffffffffffffff80821115611ca057600080fd5b611cac87838801611b2a565b93506040860135915080821115611cc257600080fd5b50611ccf86828701611b2a565b9150509250925092565b60008060408385031215611cec57600080fd5b823567ffffffffffffffff80821115611d0457600080fd5b818501915085601f830112611d1857600080fd5b81356020611d2582611b06565b604051611d328282611985565b83815260059390931b8501820192828101915089841115611d5257600080fd5b948201945b83861015611d7757611d68866118ef565b82529482019490820190611d57565b96505086013592505080821115611d8d57600080fd5b50611d9a85828601611b2a565b9150509250929050565b600081518084526020808501945080840160005b83811015611dd457815187529582019590820190600101611db8565b509495945050505050565b6020815260006119686020830184611da4565b600060208284031215611e0457600080fd5b611968826118ef565b60008060408385031215611e2057600080fd5b611e29836118ef565b915060208301358015158114611e3e57600080fd5b809150509250929050565b60008060408385031215611e5c57600080fd5b611e65836118ef565b9150611e73602084016118ef565b90509250929050565b600080600080600060a08688031215611e9457600080fd5b611e9d866118ef565b9450611eab602087016118ef565b93506040860135925060608601359150608086013567ffffffffffffffff811115611ed557600080fd5b611c5888828901611b9b565b600181811c90821680611ef557607f821691505b602082108103611f1557634e487b7160e01b600052602260045260246000fd5b50919050565b6020808252602e908201527f455243313135353a2063616c6c6572206973206e6f7420746f6b656e206f776e60408201526d195c881bdc88185c1c1c9bdd995960921b606082015260800190565b60208082526035908201527f43616c6c657220646f6573206e6f742068617665207065726d697373696f6e206040820152743a379031b0b636103a3434b990333ab731ba34b7b760591b606082015260800190565b634e487b7160e01b600052603260045260246000fd5b634e487b7160e01b600052601160045260246000fd5b600060018201611ffc57611ffc611fd4565b5060010190565b601f82111561060f57600081815260208120601f850160051c8101602086101561202a5750805b601f850160051c820191505b81811015610d4957828155600101612036565b815167ffffffffffffffff8111156120635761206361196f565b612077816120718454611ee1565b84612003565b602080601f8311600181146120ac57600084156120945750858301515b600019600386901b1c1916600185901b178555610d49565b600085815260208120601f198616915b828110156120db578886015182559484019460019091019084016120bc565b50858210156120f95787850151600019600388901b60f8161c191681555b5050505050600190811b01905550565b60208082526021908201527f455243313135353a206d696e7420746f20746865207a65726f206164647265736040820152607360f81b606082015260800190565b808201808211156104ee576104ee611fd4565b60208082526028908201527f455243313135353a2069647320616e6420616d6f756e7473206c656e677468206040820152670dad2e6dac2e8c6d60c31b606082015260800190565b60208082526025908201527f455243313135353a207472616e7366657220746f20746865207a65726f206164604082015264647265737360d81b606082015260800190565b6020808252602a908201527f455243313135353a20696e73756666696369656e742062616c616e636520666f60408201526939103a3930b739b332b960b11b606082015260800190565b6040815260006122476040830185611da4565b82810360208401526122598185611da4565b95945050505050565b60208082526023908201527f455243313135353a206275726e2066726f6d20746865207a65726f206164647260408201526265737360e81b606082015260800190565b60208082526024908201527f455243313135353a206275726e20616d6f756e7420657863656564732062616c604082015263616e636560e01b606082015260800190565b6001600160a01b03868116825285166020820152604081018490526060810183905260a06080820181905260009061232390830184611a7a565b979650505050505050565b60006020828403121561234057600080fd5b815161196881611935565b600060033d11156123645760046000803e5060005160e01c5b90565b600060443d10156123755790565b6040516003193d81016004833e81513d67ffffffffffffffff81602484011181841117156123a557505050505090565b82850191508151818111156123bd5750505050505090565b843d87010160208285010111156123d75750505050505090565b6123e660208286010187611985565b509095945050505050565b60208082526028908201527f455243313135353a204552433131353552656365697665722072656a656374656040820152676420746f6b656e7360c01b606082015260800190565b6001600160a01b0386811682528516602082015260a06040820181905260009061246590830186611da4565b82810360608401526124778186611da4565b9050828103608084015261248b8185611a7a565b9897505050505050505056fea264697066735822122097e40072fb0c4aef1e5bb62cd08a70f88e6913f6d99a6f9a860612706e8b324164736f6c6343000813003368747470733a2f2f697066732e696f2f697066732f516d6139716f5766594c4b31677772656a706b3773743477743756383259786f4479394d774c45534834486b59342f7b69647d2e6a736f6e",
  "linkReferences": {},
  "deployedLinkReferences": {}
}