{
  "_format": "hh-sol-artifact-1",
  "contractName": "VvERC20Resources",
  "sourceName": "contracts/VoxelVerseERC20Resources.sol",
  "abi": [
    {
      "inputs": [],
      "stateMutability": "nonpayable",
      "type": "constructor"
    },
    {
      "anonymous": false,
      "inputs": [
        {
          "indexed": true,
          "internalType": "address",
          "name": "owner",
          "type": "address"
        },
        {
          "indexed": true,
          "internalType": "address",
          "name": "spender",
          "type": "address"
        },
        {
          "indexed": false,
          "internalType": "uint256",
          "name": "value",
          "type": "uint256"
        }
      ],
      "name": "Approval",
      "type": "event"
    },
    {
      "anonymous": false,
      "inputs": [
        {
          "indexed": true,
          "internalType": "address",
          "name": "previousOwner",
          "type": "address"
        },
        {
          "indexed": true,
          "internalType": "address",
          "name": "newOwner",
          "type": "address"
        }
      ],
      "name": "OwnershipTransferred",
      "type": "event"
    },
    {
      "anonymous": false,
      "inputs": [
        {
          "indexed": true,
          "internalType": "address",
          "name": "owner",
          "type": "address"
        },
        {
          "indexed": true,
          "internalType": "uint256",
          "name": "id",
          "type": "uint256"
        },
        {
          "indexed": false,
          "internalType": "uint256",
          "name": "amount",
          "type": "uint256"
        }
      ],
      "name": "ResourceTokenBurned",
      "type": "event"
    },
    {
      "anonymous": false,
      "inputs": [
        {
          "indexed": true,
          "internalType": "address",
          "name": "holder",
          "type": "address"
        },
        {
          "indexed": true,
          "internalType": "uint256",
          "name": "id",
          "type": "uint256"
        },
        {
          "indexed": false,
          "internalType": "uint256",
          "name": "amount",
          "type": "uint256"
        }
      ],
      "name": "ResourceTokenMinted",
      "type": "event"
    },
    {
      "anonymous": false,
      "inputs": [
        {
          "indexed": true,
          "internalType": "address",
          "name": "from",
          "type": "address"
        },
        {
          "indexed": true,
          "internalType": "address",
          "name": "to",
          "type": "address"
        },
        {
          "indexed": true,
          "internalType": "uint256",
          "name": "id",
          "type": "uint256"
        },
        {
          "indexed": false,
          "internalType": "uint256",
          "name": "amount",
          "type": "uint256"
        }
      ],
      "name": "ResourceTokenTransferred",
      "type": "event"
    },
    {
      "anonymous": false,
      "inputs": [
        {
          "indexed": true,
          "internalType": "address",
          "name": "owner",
          "type": "address"
        },
        {
          "indexed": true,
          "internalType": "uint256",
          "name": "id",
          "type": "uint256"
        },
        {
          "indexed": false,
          "internalType": "uint256",
          "name": "amount",
          "type": "uint256"
        }
      ],
      "name": "TokenBurnedOnBehalf",
      "type": "event"
    },
    {
      "anonymous": false,
      "inputs": [
        {
          "indexed": true,
          "internalType": "address",
          "name": "from",
          "type": "address"
        },
        {
          "indexed": true,
          "internalType": "address",
          "name": "to",
          "type": "address"
        },
        {
          "indexed": false,
          "internalType": "uint256",
          "name": "value",
          "type": "uint256"
        }
      ],
      "name": "Transfer",
      "type": "event"
    },
    {
      "inputs": [
        {
          "internalType": "uint256",
          "name": "",
          "type": "uint256"
        }
      ],
      "name": "_resourceSupply",
      "outputs": [
        {
          "internalType": "uint256",
          "name": "",
          "type": "uint256"
        }
      ],
      "stateMutability": "view",
      "type": "function"
    },
    {
      "inputs": [
        {
          "internalType": "address",
          "name": "owner",
          "type": "address"
        },
        {
          "internalType": "address",
          "name": "spender",
          "type": "address"
        }
      ],
      "name": "allowance",
      "outputs": [
        {
          "internalType": "uint256",
          "name": "",
          "type": "uint256"
        }
      ],
      "stateMutability": "view",
      "type": "function"
    },
    {
      "inputs": [],
      "name": "allowedMinterContract",
      "outputs": [
        {
          "internalType": "address",
          "name": "",
          "type": "address"
        }
      ],
      "stateMutability": "view",
      "type": "function"
    },
    {
      "inputs": [
        {
          "internalType": "address",
          "name": "spender",
          "type": "address"
        },
        {
          "internalType": "uint256",
          "name": "amount",
          "type": "uint256"
        }
      ],
      "name": "approve",
      "outputs": [
        {
          "internalType": "bool",
          "name": "",
          "type": "bool"
        }
      ],
      "stateMutability": "nonpayable",
      "type": "function"
    },
    {
      "inputs": [
        {
          "internalType": "address",
          "name": "account",
          "type": "address"
        }
      ],
      "name": "balanceOf",
      "outputs": [
        {
          "internalType": "uint256",
          "name": "",
          "type": "uint256"
        }
      ],
      "stateMutability": "view",
      "type": "function"
    },
    {
      "inputs": [
        {
          "internalType": "uint256",
          "name": "amount",
          "type": "uint256"
        }
      ],
      "name": "burn",
      "outputs": [],
      "stateMutability": "nonpayable",
      "type": "function"
    },
    {
      "inputs": [
        {
          "internalType": "address",
          "name": "account",
          "type": "address"
        },
        {
          "internalType": "uint256",
          "name": "amount",
          "type": "uint256"
        }
      ],
      "name": "burnFrom",
      "outputs": [],
      "stateMutability": "nonpayable",
      "type": "function"
    },
    {
      "inputs": [
        {
          "internalType": "address",
          "name": "owner",
          "type": "address"
        },
        {
          "internalType": "uint256",
          "name": "id",
          "type": "uint256"
        },
        {
          "internalType": "uint256",
          "name": "amount",
          "type": "uint256"
        }
      ],
      "name": "burnOnBehalf",
      "outputs": [],
      "stateMutability": "nonpayable",
      "type": "function"
    },
    {
      "inputs": [
        {
          "internalType": "uint256",
          "name": "id",
          "type": "uint256"
        },
        {
          "internalType": "uint256",
          "name": "amount",
          "type": "uint256"
        }
      ],
      "name": "burnResourceToken",
      "outputs": [],
      "stateMutability": "nonpayable",
      "type": "function"
    },
    {
      "inputs": [],
      "name": "decimals",
      "outputs": [
        {
          "internalType": "uint8",
          "name": "",
          "type": "uint8"
        }
      ],
      "stateMutability": "view",
      "type": "function"
    },
    {
      "inputs": [
        {
          "internalType": "address",
          "name": "spender",
          "type": "address"
        },
        {
          "internalType": "uint256",
          "name": "subtractedValue",
          "type": "uint256"
        }
      ],
      "name": "decreaseAllowance",
      "outputs": [
        {
          "internalType": "bool",
          "name": "",
          "type": "bool"
        }
      ],
      "stateMutability": "nonpayable",
      "type": "function"
    },
    {
      "inputs": [
        {
          "internalType": "uint256",
          "name": "id",
          "type": "uint256"
        }
      ],
      "name": "getResourceName",
      "outputs": [
        {
          "internalType": "string",
          "name": "",
          "type": "string"
        }
      ],
      "stateMutability": "view",
      "type": "function"
    },
    {
      "inputs": [
        {
          "internalType": "uint256",
          "name": "id",
          "type": "uint256"
        },
        {
          "internalType": "address",
          "name": "account",
          "type": "address"
        }
      ],
      "name": "getResourceNameByAccount",
      "outputs": [
        {
          "internalType": "string",
          "name": "",
          "type": "string"
        }
      ],
      "stateMutability": "view",
      "type": "function"
    },
    {
      "inputs": [
        {
          "internalType": "uint256",
          "name": "",
          "type": "uint256"
        }
      ],
      "name": "globalResources",
      "outputs": [
        {
          "internalType": "string",
          "name": "resourceName",
          "type": "string"
        },
        {
          "internalType": "uint256",
          "name": "id",
          "type": "uint256"
        },
        {
          "internalType": "uint256",
          "name": "balance",
          "type": "uint256"
        }
      ],
      "stateMutability": "view",
      "type": "function"
    },
    {
      "inputs": [
        {
          "internalType": "address",
          "name": "spender",
          "type": "address"
        },
        {
          "internalType": "uint256",
          "name": "addedValue",
          "type": "uint256"
        }
      ],
      "name": "increaseAllowance",
      "outputs": [
        {
          "internalType": "bool",
          "name": "",
          "type": "bool"
        }
      ],
      "stateMutability": "nonpayable",
      "type": "function"
    },
    {
      "inputs": [
        {
          "internalType": "address",
          "name": "holder",
          "type": "address"
        },
        {
          "internalType": "uint256",
          "name": "id",
          "type": "uint256"
        },
        {
          "internalType": "uint256",
          "name": "amount",
          "type": "uint256"
        }
      ],
      "name": "mintResourceToken",
      "outputs": [],
      "stateMutability": "nonpayable",
      "type": "function"
    },
    {
      "inputs": [
        {
          "internalType": "address",
          "name": "holder",
          "type": "address"
        },
        {
          "internalType": "uint256",
          "name": "id",
          "type": "uint256"
        },
        {
          "internalType": "uint256",
          "name": "amount",
          "type": "uint256"
        }
      ],
      "name": "mintSmeltedResourceToken",
      "outputs": [],
      "stateMutability": "nonpayable",
      "type": "function"
    },
    {
      "inputs": [],
      "name": "name",
      "outputs": [
        {
          "internalType": "string",
          "name": "",
          "type": "string"
        }
      ],
      "stateMutability": "view",
      "type": "function"
    },
    {
      "inputs": [],
      "name": "owner",
      "outputs": [
        {
          "internalType": "address",
          "name": "",
          "type": "address"
        }
      ],
      "stateMutability": "view",
      "type": "function"
    },
    {
      "inputs": [],
      "name": "renounceOwnership",
      "outputs": [],
      "stateMutability": "nonpayable",
      "type": "function"
    },
    {
      "inputs": [
        {
          "internalType": "address",
          "name": "account",
          "type": "address"
        },
        {
          "internalType": "uint256",
          "name": "id",
          "type": "uint256"
        }
      ],
      "name": "resourceBalanceOf",
      "outputs": [
        {
          "internalType": "uint256",
          "name": "",
          "type": "uint256"
        }
      ],
      "stateMutability": "view",
      "type": "function"
    },
    {
      "inputs": [
        {
          "internalType": "address",
          "name": "",
          "type": "address"
        },
        {
          "internalType": "uint256",
          "name": "",
          "type": "uint256"
        }
      ],
      "name": "resources",
      "outputs": [
        {
          "internalType": "string",
          "name": "resourceName",
          "type": "string"
        },
        {
          "internalType": "uint256",
          "name": "id",
          "type": "uint256"
        },
        {
          "internalType": "uint256",
          "name": "balance",
          "type": "uint256"
        }
      ],
      "stateMutability": "view",
      "type": "function"
    },
    {
      "inputs": [
        {
          "internalType": "address",
          "name": "_minterContract",
          "type": "address"
        }
      ],
      "name": "setMinterContract",
      "outputs": [],
      "stateMutability": "nonpayable",
      "type": "function"
    },
    {
      "inputs": [],
      "name": "symbol",
      "outputs": [
        {
          "internalType": "string",
          "name": "",
          "type": "string"
        }
      ],
      "stateMutability": "view",
      "type": "function"
    },
    {
      "inputs": [],
      "name": "totalSupply",
      "outputs": [
        {
          "internalType": "uint256",
          "name": "",
          "type": "uint256"
        }
      ],
      "stateMutability": "view",
      "type": "function"
    },
    {
      "inputs": [
        {
          "internalType": "uint256",
          "name": "id",
          "type": "uint256"
        }
      ],
      "name": "totalSupplyByResourceId",
      "outputs": [
        {
          "internalType": "uint256",
          "name": "",
          "type": "uint256"
        }
      ],
      "stateMutability": "view",
      "type": "function"
    },
    {
      "inputs": [
        {
          "internalType": "address",
          "name": "to",
          "type": "address"
        },
        {
          "internalType": "uint256",
          "name": "amount",
          "type": "uint256"
        }
      ],
      "name": "transfer",
      "outputs": [
        {
          "internalType": "bool",
          "name": "",
          "type": "bool"
        }
      ],
      "stateMutability": "nonpayable",
      "type": "function"
    },
    {
      "inputs": [
        {
          "internalType": "address",
          "name": "from",
          "type": "address"
        },
        {
          "internalType": "address",
          "name": "to",
          "type": "address"
        },
        {
          "internalType": "uint256",
          "name": "amount",
          "type": "uint256"
        }
      ],
      "name": "transferFrom",
      "outputs": [
        {
          "internalType": "bool",
          "name": "",
          "type": "bool"
        }
      ],
      "stateMutability": "nonpayable",
      "type": "function"
    },
    {
      "inputs": [
        {
          "internalType": "address",
          "name": "newOwner",
          "type": "address"
        }
      ],
      "name": "transferOwnership",
      "outputs": [],
      "stateMutability": "nonpayable",
      "type": "function"
    },
    {
      "inputs": [
        {
          "internalType": "address",
          "name": "to",
          "type": "address"
        },
        {
          "internalType": "uint256",
          "name": "id",
          "type": "uint256"
        },
        {
          "internalType": "uint256",
          "name": "amount",
          "type": "uint256"
        }
      ],
      "name": "transferResourceToken",
      "outputs": [],
      "stateMutability": "nonpayable",
      "type": "function"
    },
    {
      "inputs": [
        {
          "internalType": "address",
          "name": "from",
          "type": "address"
        },
        {
          "internalType": "address",
          "name": "to",
          "type": "address"
        },
        {
          "internalType": "uint256",
          "name": "id",
          "type": "uint256"
        },
        {
          "internalType": "uint256",
          "name": "amount",
          "type": "uint256"
        }
      ],
      "name": "transferResourceTokenToSell",
      "outputs": [],
      "stateMutability": "nonpayable",
      "type": "function"
    }
  ],
  "bytecode": "0x60806040523480156200001157600080fd5b506040518060400160405280601081526020016f567645524332305265736f757263657360801b815250604051806040016040528060088152602001672b3b22a92199182960c11b81525081600390816200006d919062000442565b5060046200007c828262000442565b50505062000099620000936200034760201b60201c565b6200034b565b6040805160a08082018352600460608084018281526315dbdbd960e21b60808087019190915290855260016020808701829052600087890181905288518088018a5260058187018181526453746f6e6560d81b838801528252600282850152818b018390528a51808a018c528088018981526324b937b760e11b828901528152600381860152808c018490528b51808b018d528089018a81526311dbdb1960e21b828a0152815280860199909952888c018490528b51808b018d526008818a019081526726b2ba30b62130b960c11b828a0152815280860192909252818c018490528b51998a018c526007978a018881526623b7b6322130b960c91b978b0197909752958952600689850152888b01839052338352958352898220938252929091529690962085519596959194918791908190620001d8908262000442565b50602082810151600183015560409283015160029283015533600090815260078252838120928152919052208551869190819062000217908262000442565b506020828101516001830155604092830151600290920191909155336000908152600782528281206003825290915220845185919081906200025a908262000442565b506020828101516001830155604092830151600290920191909155336000908152600782528281206004825290915220835184919081906200029d908262000442565b50602082810151600183015560409283015160029092019190915533600090815260078252828120600582529091522082518391908190620002e0908262000442565b5060208281015160018301556040928301516002909201919091553360009081526007825282812060068252909152208151829190819062000323908262000442565b5060208201518160010155604082015181600201559050505050505050506200050e565b3390565b600580546001600160a01b038381166001600160a01b0319831681179093556040519116919082907f8be0079c531659141344cd1fd0a4f28419497f9722a3daafe3b4186f6b6457e090600090a35050565b634e487b7160e01b600052604160045260246000fd5b600181811c90821680620003c857607f821691505b602082108103620003e957634e487b7160e01b600052602260045260246000fd5b50919050565b601f8211156200043d57600081815260208120601f850160051c81016020861015620004185750805b601f850160051c820191505b81811015620004395782815560010162000424565b5050505b505050565b81516001600160401b038111156200045e576200045e6200039d565b62000476816200046f8454620003b3565b84620003ef565b602080601f831160018114620004ae5760008415620004955750858301515b600019600386901b1c1916600185901b17855562000439565b600085815260208120601f198616915b82811015620004df57888601518255948401946001909101908401620004be565b5085821015620004fe5787850151600019600388901b60f8161c191681555b5050505050600190811b01905550565b611d45806200051e6000396000f3fe608060405234801561001057600080fd5b50600436106101e55760003560e01c8063715018a61161010f5780639eb2ec7b116100a2578063cb3f4a6511610071578063cb3f4a6514610468578063dd62ed3e1461047b578063f03701d91461048e578063f2fde38b146104a157600080fd5b80639eb2ec7b1461040f578063a457c2d71461042f578063a9059cbb14610442578063af4ee72d1461045557600080fd5b80638da5cb5b116100de5780638da5cb5b146103d0578063913d1485146103e157806395d89b41146103f457806398c15d8a146103fc57600080fd5b8063715018a61461035c57806379cc67901461036457806386ebba8b146103775780638a4fd67c146103b057600080fd5b806334fd667b116101875780635efec5c9116101565780635efec5c9146102d357806363752900146102e65780636a6b73441461030857806370a082311461033357600080fd5b806334fd667b1461028757806338478ae71461029a57806339509351146102ad57806342966c68146102c057600080fd5b806318160ddd116101c357806318160ddd1461024057806323b872dd14610252578063313ce56714610265578063332034e71461027457600080fd5b806306fdde03146101ea578063095ea7b3146102085780630c7ff96e1461022b575b600080fd5b6101f26104b4565b6040516101ff919061195c565b60405180910390f35b61021b610216366004611992565b610546565b60405190151581526020016101ff565b61023e6102393660046119bc565b610560565b005b6002545b6040519081526020016101ff565b61021b6102603660046119ef565b6106b5565b604051601281526020016101ff565b6101f2610282366004611a2b565b6106d9565b61023e6102953660046119bc565b61077b565b61023e6102a8366004611a44565b610a84565b61021b6102bb366004611992565b610aae565b61023e6102ce366004611a2b565b610ad0565b61023e6102e13660046119bc565b610add565b6102f96102f4366004611a2b565b610c1c565b6040516101ff93929190611a5f565b60065461031b906001600160a01b031681565b6040516001600160a01b0390911681526020016101ff565b610244610341366004611a44565b6001600160a01b031660009081526020819052604090205490565b61023e610cc6565b61023e610372366004611992565b610cda565b610244610385366004611992565b6001600160a01b03919091166000908152600760209081526040808320938352929052206002015490565b6102446103be366004611a2b565b60009081526009602052604090205490565b6005546001600160a01b031661031b565b6101f26103ef366004611a84565b610cf3565b6101f2610dab565b61023e61040a366004611ab0565b610dba565b61024461041d366004611a2b565b60096020526000908152604090205481565b61021b61043d366004611992565b610edd565b61021b610450366004611992565b610f58565b6102f9610463366004611992565b610f66565b61023e6104763660046119bc565b610f8c565b610244610489366004611ad2565b61119d565b61023e61049c366004611afc565b6111c8565b61023e6104af366004611a44565b6113af565b6060600380546104c390611b3e565b80601f01602080910402602001604051908101604052809291908181526020018280546104ef90611b3e565b801561053c5780601f106105115761010080835404028352916020019161053c565b820191906000526020600020905b81548152906001019060200180831161051f57829003601f168201915b5050505050905090565b600033610554818585611425565b60019150505b92915050565b3360009081526007602090815260408083208584529091529020600201548111156105d25760405162461bcd60e51b815260206004820181905260248201527f496e73756666696369656e742062616c616e636520746f207472616e7366657260448201526064015b60405180910390fd5b336000908152600760209081526040808320858452909152812060020180548392906105ff908490611b8e565b90915550506001600160a01b03831660009081526007602090815260408083208584529091528120600201805483929061063a908490611ba1565b909155505060405181815282906001600160a01b0385169033907f082ed07e7add37ffd0b8fe27b3af66229541a2be895a52f4201b79a0eb965be69060200160405180910390a46040518181526001600160a01b038416903390600080516020611cf0833981519152906020015b60405180910390a3505050565b6000336106c3858285611541565b6106ce8585856115bb565b506001949350505050565b60008181526008602052604090208054606091906106f690611b3e565b80601f016020809104026020016040519081016040528092919081815260200182805461072290611b3e565b801561076f5780601f106107445761010080835404028352916020019161076f565b820191906000526020600020905b81548152906001019060200180831161075257829003601f168201915b50505050509050919050565b61078361174d565b6001600160a01b0383166000908152600760209081526040808320858452909152812080546107b190611b3e565b80601f01602080910402602001604051908101604052809291908181526020018280546107dd90611b3e565b801561082a5780601f106107ff5761010080835404028352916020019161082a565b820191906000526020600020905b81548152906001019060200180831161080d57829003601f168201915b505050505090506000600390506000600390506000808660050361085d57600391506108568487611bb4565b9050610876565b8660060361087657600491506108738387611bb4565b90505b6001600160a01b03881660009081526007602090815260408083208584529091529020600201548111156108ec5760405162461bcd60e51b815260206004820181905260248201527f496e73756666696369656e7420726571756972656d656e742062616c616e636560448201526064016105c9565b6001600160a01b038816600090815260076020908152604080832085845290915281206002018054839290610922908490611b8e565b90915550506001600160a01b03881660009081526007602090815260408083208a84529091528120600201805488929061095d908490611ba1565b909155505060008781526009602052604081208054889290610980908490611ba1565b90915550506040805160608101825286815260208082018a90526001600160a01b038b166000908152600782528381208b8252825283812060020154838501528a815260089091529190912081518992919081906109de9082611c2f565b5060208281015160018301556040928301516002928301556001600160a01b038c166000818152600783528481208d825283528490209092015492519283528a927f4b2838246ff961fa3e6be8fe9de75f039ff2125e603fe1aa2a643ea1aa719d0e910160405180910390a36040518781526001600160a01b038a1690600090600080516020611cf08339815191529060200160405180910390a3505050505050505050565b610a8c61174d565b600680546001600160a01b0319166001600160a01b0392909216919091179055565b600033610554818585610ac1838361119d565b610acb9190611ba1565b611425565b610ada33826117a7565b50565b610ae561174d565b6001600160a01b0383166000908152600760209081526040808320858452909152902060020154811115610b525760405162461bcd60e51b8152602060048201526014602482015273496e73756666696369656e742062616c616e636560601b60448201526064016105c9565b6001600160a01b038316600090815260076020908152604080832085845290915281206002018054839290610b88908490611b8e565b909155505060008281526009602052604081208054839290610bab908490611b8e565b909155505060405181815282906001600160a01b038516907f228d120103bc27dd657575bd964a0ef7cc8e34bcf2368c2b72b99ef54b3944cb9060200160405180910390a36040518181526000906001600160a01b03851690600080516020611cf0833981519152906020016106a8565b600860205260009081526040902080548190610c3790611b3e565b80601f0160208091040260200160405190810160405280929190818152602001828054610c6390611b3e565b8015610cb05780601f10610c8557610100808354040283529160200191610cb0565b820191906000526020600020905b815481529060010190602001808311610c9357829003601f168201915b5050505050908060010154908060020154905083565b610cce61174d565b610cd860006118c4565b565b610ce5823383611541565b610cef82826117a7565b5050565b6001600160a01b03811660009081526007602090815260408083208584529091529020805460609190610d2590611b3e565b80601f0160208091040260200160405190810160405280929190818152602001828054610d5190611b3e565b8015610d9e5780601f10610d7357610100808354040283529160200191610d9e565b820191906000526020600020905b815481529060010190602001808311610d8157829003601f168201915b5050505050905092915050565b6060600480546104c390611b3e565b336000908152600760209081526040808320858452909152902060020154811115610e275760405162461bcd60e51b815260206004820152601c60248201527f496e73756666696369656e742062616c616e636520746f206275726e0000000060448201526064016105c9565b33600090815260076020908152604080832085845290915281206002018054839290610e54908490611b8e565b909155505060008281526009602052604081208054839290610e77908490611b8e565b9091555050604051818152829033907f2cd8054db07697333f310204ae07594fe1a75e8b76c882fdd25f4d1ac0afef449060200160405180910390a36040518181526000903390600080516020611cf08339815191529060200160405180910390a35050565b60003381610eeb828661119d565b905083811015610f4b5760405162461bcd60e51b815260206004820152602560248201527f45524332303a2064656372656173656420616c6c6f77616e63652062656c6f77604482015264207a65726f60d81b60648201526084016105c9565b6106ce8286868403611425565b6000336105548185856115bb565b6007602090815260009283526040808420909152908252902080548190610c3790611b3e565b610f9461174d565b6001600160a01b038316600090815260076020908152604080832085845290915281208054610fc290611b3e565b80601f0160208091040260200160405190810160405280929190818152602001828054610fee90611b3e565b801561103b5780601f106110105761010080835404028352916020019161103b565b820191906000526020600020905b81548152906001019060200180831161101e57829003601f168201915b505050506001600160a01b038616600090815260076020908152604080832088845290915281206002018054939450859390925061107a908490611ba1565b90915550506000838152600960205260408120805484929061109d908490611ba1565b90915550506040805160608101825282815260208082018690526001600160a01b0387166000908152600782528381208782528252838120600201548385015286815260089091529190912081518592919081906110fb9082611c2f565b5060208281015160018301556040928301516002928301556001600160a01b038816600081815260078352848120898252835284902090920154925192835286927f4b2838246ff961fa3e6be8fe9de75f039ff2125e603fe1aa2a643ea1aa719d0e910160405180910390a36040518381526001600160a01b03861690600090600080516020611cf08339815191529060200160405180910390a35050505050565b6001600160a01b03918216600090815260016020908152604080832093909416825291909152205490565b6001600160a01b03841660009081526007602090815260408083208584529091529020600201548111156112355760405162461bcd60e51b8152602060048201526014602482015273496e73756666696369656e742062616c616e636560601b60448201526064016105c9565b6001600160a01b03831660009081526007602090815260408083208584529091529020600201546112668282611ba1565b10156112a85760405162461bcd60e51b815260206004820152601160248201527013dd995c999b1bddc819195d1958dd1959607a1b60448201526064016105c9565b6001600160a01b0384166000908152600760209081526040808320858452909152812060020180548392906112de908490611b8e565b90915550506001600160a01b038316600090815260076020908152604080832085845290915281206002018054839290611319908490611ba1565b9250508190555081836001600160a01b0316856001600160a01b03167f082ed07e7add37ffd0b8fe27b3af66229541a2be895a52f4201b79a0eb965be68460405161136691815260200190565b60405180910390a4826001600160a01b0316846001600160a01b0316600080516020611cf0833981519152836040516113a191815260200190565b60405180910390a350505050565b6113b761174d565b6001600160a01b03811661141c5760405162461bcd60e51b815260206004820152602660248201527f4f776e61626c653a206e6577206f776e657220697320746865207a65726f206160448201526564647265737360d01b60648201526084016105c9565b610ada816118c4565b6001600160a01b0383166114875760405162461bcd60e51b8152602060048201526024808201527f45524332303a20617070726f76652066726f6d20746865207a65726f206164646044820152637265737360e01b60648201526084016105c9565b6001600160a01b0382166114e85760405162461bcd60e51b815260206004820152602260248201527f45524332303a20617070726f766520746f20746865207a65726f206164647265604482015261737360f01b60648201526084016105c9565b6001600160a01b0383811660008181526001602090815260408083209487168084529482529182902085905590518481527f8c5be1e5ebec7d5bd14f71427d1e84f3dd0314c0f7b2291e5b200ac8c7c3b92591016106a8565b600061154d848461119d565b905060001981146115b557818110156115a85760405162461bcd60e51b815260206004820152601d60248201527f45524332303a20696e73756666696369656e7420616c6c6f77616e636500000060448201526064016105c9565b6115b58484848403611425565b50505050565b6001600160a01b03831661161f5760405162461bcd60e51b815260206004820152602560248201527f45524332303a207472616e736665722066726f6d20746865207a65726f206164604482015264647265737360d81b60648201526084016105c9565b6001600160a01b0382166116815760405162461bcd60e51b815260206004820152602360248201527f45524332303a207472616e7366657220746f20746865207a65726f206164647260448201526265737360e81b60648201526084016105c9565b6001600160a01b038316600090815260208190526040902054818110156116f95760405162461bcd60e51b815260206004820152602660248201527f45524332303a207472616e7366657220616d6f756e7420657863656564732062604482015265616c616e636560d01b60648201526084016105c9565b6001600160a01b0384811660008181526020818152604080832087870390559387168083529184902080548701905592518581529092600080516020611cf0833981519152910160405180910390a36115b5565b6005546001600160a01b03163314610cd85760405162461bcd60e51b815260206004820181905260248201527f4f776e61626c653a2063616c6c6572206973206e6f7420746865206f776e657260448201526064016105c9565b6001600160a01b0382166118075760405162461bcd60e51b815260206004820152602160248201527f45524332303a206275726e2066726f6d20746865207a65726f206164647265736044820152607360f81b60648201526084016105c9565b6001600160a01b0382166000908152602081905260409020548181101561187b5760405162461bcd60e51b815260206004820152602260248201527f45524332303a206275726e20616d6f756e7420657863656564732062616c616e604482015261636560f01b60648201526084016105c9565b6001600160a01b038316600081815260208181526040808320868603905560028054879003905551858152919291600080516020611cf083398151915291016106a8565b505050565b600580546001600160a01b038381166001600160a01b0319831681179093556040519116919082907f8be0079c531659141344cd1fd0a4f28419497f9722a3daafe3b4186f6b6457e090600090a35050565b6000815180845260005b8181101561193c57602081850181015186830182015201611920565b506000602082860101526020601f19601f83011685010191505092915050565b60208152600061196f6020830184611916565b9392505050565b80356001600160a01b038116811461198d57600080fd5b919050565b600080604083850312156119a557600080fd5b6119ae83611976565b946020939093013593505050565b6000806000606084860312156119d157600080fd5b6119da84611976565b95602085013595506040909401359392505050565b600080600060608486031215611a0457600080fd5b611a0d84611976565b9250611a1b60208501611976565b9150604084013590509250925092565b600060208284031215611a3d57600080fd5b5035919050565b600060208284031215611a5657600080fd5b61196f82611976565b606081526000611a726060830186611916565b60208301949094525060400152919050565b60008060408385031215611a9757600080fd5b82359150611aa760208401611976565b90509250929050565b60008060408385031215611ac357600080fd5b50508035926020909101359150565b60008060408385031215611ae557600080fd5b611aee83611976565b9150611aa760208401611976565b60008060008060808587031215611b1257600080fd5b611b1b85611976565b9350611b2960208601611976565b93969395505050506040820135916060013590565b600181811c90821680611b5257607f821691505b602082108103611b7257634e487b7160e01b600052602260045260246000fd5b50919050565b634e487b7160e01b600052601160045260246000fd5b8181038181111561055a5761055a611b78565b8082018082111561055a5761055a611b78565b808202811582820484141761055a5761055a611b78565b634e487b7160e01b600052604160045260246000fd5b601f8211156118bf57600081815260208120601f850160051c81016020861015611c085750805b601f850160051c820191505b81811015611c2757828155600101611c14565b505050505050565b815167ffffffffffffffff811115611c4957611c49611bcb565b611c5d81611c578454611b3e565b84611be1565b602080601f831160018114611c925760008415611c7a5750858301515b600019600386901b1c1916600185901b178555611c27565b600085815260208120601f198616915b82811015611cc157888601518255948401946001909101908401611ca2565b5085821015611cdf5787850151600019600388901b60f8161c191681555b5050505050600190811b0190555056feddf252ad1be2c89b69c2b068fc378daa952ba7f163c4a11628f55a4df523b3efa26469706673582212207de17662f6f56e1eecb816d125ac1dcc1d4be480d47fc844b3b9b6edcab2f6ae64736f6c63430008130033",
  "linkReferences": {},
  "deployedLinkReferences": {}
}