{
  "_format": "hh-sol-artifact-1",
  "contractName": "VoxelVerseWood",
  "sourceName": "contracts/Wood.sol",
  "abi": [
    {
      "inputs": [],
      "stateMutability": "nonpayable",
      "type": "constructor"
    },
    {
      "anonymous": false,
      "inputs": [
        {
          "indexed": true,
          "internalType": "address",
          "name": "account",
          "type": "address"
        },
        {
          "indexed": true,
          "internalType": "address",
          "name": "operator",
          "type": "address"
        },
        {
          "indexed": false,
          "internalType": "bool",
          "name": "approved",
          "type": "bool"
        }
      ],
      "name": "ApprovalForAll",
      "type": "event"
    },
    {
      "anonymous": false,
      "inputs": [
        {
          "indexed": true,
          "internalType": "address",
          "name": "player",
          "type": "address"
        },
        {
          "indexed": false,
          "internalType": "uint256",
          "name": "amount",
          "type": "uint256"
        }
      ],
      "name": "Burned",
      "type": "event"
    },
    {
      "anonymous": false,
      "inputs": [
        {
          "indexed": true,
          "internalType": "address",
          "name": "previousOwner",
          "type": "address"
        },
        {
          "indexed": true,
          "internalType": "address",
          "name": "newOwner",
          "type": "address"
        }
      ],
      "name": "OwnershipTransferred",
      "type": "event"
    },
    {
      "anonymous": false,
      "inputs": [
        {
          "indexed": false,
          "internalType": "address",
          "name": "account",
          "type": "address"
        }
      ],
      "name": "Paused",
      "type": "event"
    },
    {
      "anonymous": false,
      "inputs": [
        {
          "indexed": true,
          "internalType": "address",
          "name": "operator",
          "type": "address"
        },
        {
          "indexed": true,
          "internalType": "address",
          "name": "from",
          "type": "address"
        },
        {
          "indexed": true,
          "internalType": "address",
          "name": "to",
          "type": "address"
        },
        {
          "indexed": false,
          "internalType": "uint256[]",
          "name": "ids",
          "type": "uint256[]"
        },
        {
          "indexed": false,
          "internalType": "uint256[]",
          "name": "values",
          "type": "uint256[]"
        }
      ],
      "name": "TransferBatch",
      "type": "event"
    },
    {
      "anonymous": false,
      "inputs": [
        {
          "indexed": true,
          "internalType": "address",
          "name": "operator",
          "type": "address"
        },
        {
          "indexed": true,
          "internalType": "address",
          "name": "from",
          "type": "address"
        },
        {
          "indexed": true,
          "internalType": "address",
          "name": "to",
          "type": "address"
        },
        {
          "indexed": false,
          "internalType": "uint256",
          "name": "id",
          "type": "uint256"
        },
        {
          "indexed": false,
          "internalType": "uint256",
          "name": "value",
          "type": "uint256"
        }
      ],
      "name": "TransferSingle",
      "type": "event"
    },
    {
      "anonymous": false,
      "inputs": [
        {
          "indexed": false,
          "internalType": "string",
          "name": "value",
          "type": "string"
        },
        {
          "indexed": true,
          "internalType": "uint256",
          "name": "id",
          "type": "uint256"
        }
      ],
      "name": "URI",
      "type": "event"
    },
    {
      "anonymous": false,
      "inputs": [
        {
          "indexed": false,
          "internalType": "address",
          "name": "account",
          "type": "address"
        }
      ],
      "name": "Unpaused",
      "type": "event"
    },
    {
      "inputs": [
        {
          "internalType": "address",
          "name": "",
          "type": "address"
        }
      ],
      "name": "allowedContracts",
      "outputs": [
        {
          "internalType": "bool",
          "name": "",
          "type": "bool"
        }
      ],
      "stateMutability": "view",
      "type": "function"
    },
    {
      "inputs": [
        {
          "internalType": "address",
          "name": "account",
          "type": "address"
        },
        {
          "internalType": "uint256",
          "name": "id",
          "type": "uint256"
        }
      ],
      "name": "balanceOf",
      "outputs": [
        {
          "internalType": "uint256",
          "name": "",
          "type": "uint256"
        }
      ],
      "stateMutability": "view",
      "type": "function"
    },
    {
      "inputs": [
        {
          "internalType": "address[]",
          "name": "accounts",
          "type": "address[]"
        },
        {
          "internalType": "uint256[]",
          "name": "ids",
          "type": "uint256[]"
        }
      ],
      "name": "balanceOfBatch",
      "outputs": [
        {
          "internalType": "uint256[]",
          "name": "",
          "type": "uint256[]"
        }
      ],
      "stateMutability": "view",
      "type": "function"
    },
    {
      "inputs": [
        {
          "internalType": "address",
          "name": "account",
          "type": "address"
        },
        {
          "internalType": "uint256",
          "name": "id",
          "type": "uint256"
        },
        {
          "internalType": "uint256",
          "name": "value",
          "type": "uint256"
        }
      ],
      "name": "burn",
      "outputs": [],
      "stateMutability": "nonpayable",
      "type": "function"
    },
    {
      "inputs": [
        {
          "internalType": "address",
          "name": "account",
          "type": "address"
        },
        {
          "internalType": "uint256[]",
          "name": "ids",
          "type": "uint256[]"
        },
        {
          "internalType": "uint256[]",
          "name": "values",
          "type": "uint256[]"
        }
      ],
      "name": "burnBatch",
      "outputs": [],
      "stateMutability": "nonpayable",
      "type": "function"
    },
    {
      "inputs": [
        {
          "internalType": "address",
          "name": "user",
          "type": "address"
        },
        {
          "internalType": "uint256",
          "name": "amount",
          "type": "uint256"
        }
      ],
      "name": "burnWood",
      "outputs": [],
      "stateMutability": "nonpayable",
      "type": "function"
    },
    {
      "inputs": [
        {
          "internalType": "uint256",
          "name": "amount",
          "type": "uint256"
        }
      ],
      "name": "contractMint",
      "outputs": [],
      "stateMutability": "nonpayable",
      "type": "function"
    },
    {
      "inputs": [
        {
          "internalType": "address",
          "name": "to",
          "type": "address"
        },
        {
          "internalType": "uint256[]",
          "name": "ids",
          "type": "uint256[]"
        },
        {
          "internalType": "uint256[]",
          "name": "amounts",
          "type": "uint256[]"
        }
      ],
      "name": "contractMintBatch",
      "outputs": [],
      "stateMutability": "nonpayable",
      "type": "function"
    },
    {
      "inputs": [
        {
          "internalType": "uint256",
          "name": "id",
          "type": "uint256"
        }
      ],
      "name": "exists",
      "outputs": [
        {
          "internalType": "bool",
          "name": "",
          "type": "bool"
        }
      ],
      "stateMutability": "view",
      "type": "function"
    },
    {
      "inputs": [
        {
          "internalType": "address",
          "name": "account",
          "type": "address"
        },
        {
          "internalType": "address",
          "name": "operator",
          "type": "address"
        }
      ],
      "name": "isApprovedForAll",
      "outputs": [
        {
          "internalType": "bool",
          "name": "",
          "type": "bool"
        }
      ],
      "stateMutability": "view",
      "type": "function"
    },
    {
      "inputs": [
        {
          "internalType": "address",
          "name": "to",
          "type": "address"
        },
        {
          "internalType": "uint256",
          "name": "amount",
          "type": "uint256"
        }
      ],
      "name": "mint",
      "outputs": [],
      "stateMutability": "nonpayable",
      "type": "function"
    },
    {
      "inputs": [
        {
          "internalType": "address",
          "name": "to",
          "type": "address"
        },
        {
          "internalType": "uint256[]",
          "name": "ids",
          "type": "uint256[]"
        },
        {
          "internalType": "uint256[]",
          "name": "amounts",
          "type": "uint256[]"
        }
      ],
      "name": "mintBatch",
      "outputs": [],
      "stateMutability": "nonpayable",
      "type": "function"
    },
    {
      "inputs": [],
      "name": "owner",
      "outputs": [
        {
          "internalType": "address",
          "name": "",
          "type": "address"
        }
      ],
      "stateMutability": "view",
      "type": "function"
    },
    {
      "inputs": [],
      "name": "pause",
      "outputs": [],
      "stateMutability": "nonpayable",
      "type": "function"
    },
    {
      "inputs": [],
      "name": "paused",
      "outputs": [
        {
          "internalType": "bool",
          "name": "",
          "type": "bool"
        }
      ],
      "stateMutability": "view",
      "type": "function"
    },
    {
      "inputs": [],
      "name": "renounceOwnership",
      "outputs": [],
      "stateMutability": "nonpayable",
      "type": "function"
    },
    {
      "inputs": [
        {
          "internalType": "address",
          "name": "from",
          "type": "address"
        },
        {
          "internalType": "address",
          "name": "to",
          "type": "address"
        },
        {
          "internalType": "uint256[]",
          "name": "ids",
          "type": "uint256[]"
        },
        {
          "internalType": "uint256[]",
          "name": "amounts",
          "type": "uint256[]"
        },
        {
          "internalType": "bytes",
          "name": "data",
          "type": "bytes"
        }
      ],
      "name": "safeBatchTransferFrom",
      "outputs": [],
      "stateMutability": "nonpayable",
      "type": "function"
    },
    {
      "inputs": [
        {
          "internalType": "address",
          "name": "from",
          "type": "address"
        },
        {
          "internalType": "address",
          "name": "to",
          "type": "address"
        },
        {
          "internalType": "uint256",
          "name": "id",
          "type": "uint256"
        },
        {
          "internalType": "uint256",
          "name": "amount",
          "type": "uint256"
        },
        {
          "internalType": "bytes",
          "name": "data",
          "type": "bytes"
        }
      ],
      "name": "safeTransferFrom",
      "outputs": [],
      "stateMutability": "nonpayable",
      "type": "function"
    },
    {
      "inputs": [
        {
          "internalType": "address",
          "name": "operator",
          "type": "address"
        },
        {
          "internalType": "bool",
          "name": "approved",
          "type": "bool"
        }
      ],
      "name": "setApprovalForAll",
      "outputs": [],
      "stateMutability": "nonpayable",
      "type": "function"
    },
    {
      "inputs": [
        {
          "internalType": "string",
          "name": "newuri",
          "type": "string"
        }
      ],
      "name": "setURI",
      "outputs": [],
      "stateMutability": "nonpayable",
      "type": "function"
    },
    {
      "inputs": [
        {
          "internalType": "bytes4",
          "name": "interfaceId",
          "type": "bytes4"
        }
      ],
      "name": "supportsInterface",
      "outputs": [
        {
          "internalType": "bool",
          "name": "",
          "type": "bool"
        }
      ],
      "stateMutability": "view",
      "type": "function"
    },
    {
      "inputs": [
        {
          "internalType": "uint256",
          "name": "id",
          "type": "uint256"
        }
      ],
      "name": "totalSupply",
      "outputs": [
        {
          "internalType": "uint256",
          "name": "",
          "type": "uint256"
        }
      ],
      "stateMutability": "view",
      "type": "function"
    },
    {
      "inputs": [
        {
          "internalType": "address",
          "name": "newOwner",
          "type": "address"
        }
      ],
      "name": "transferOwnership",
      "outputs": [],
      "stateMutability": "nonpayable",
      "type": "function"
    },
    {
      "inputs": [],
      "name": "unpause",
      "outputs": [],
      "stateMutability": "nonpayable",
      "type": "function"
    },
    {
      "inputs": [
        {
          "internalType": "uint256",
          "name": "",
          "type": "uint256"
        }
      ],
      "name": "uri",
      "outputs": [
        {
          "internalType": "string",
          "name": "",
          "type": "string"
        }
      ],
      "stateMutability": "view",
      "type": "function"
    },
    {
      "inputs": [],
      "name": "wood",
      "outputs": [
        {
          "internalType": "uint256",
          "name": "",
          "type": "uint256"
        }
      ],
      "stateMutability": "view",
      "type": "function"
    }
  ],
  "bytecode": "0x60806040523480156200001157600080fd5b506040518060800160405280604d81526020016200269d604d9139620000378162000056565b50620000433362000068565b6003805460ff60a01b191690556200022b565b60026200006482826200015f565b5050565b600380546001600160a01b038381166001600160a01b0319831681179093556040519116919082907f8be0079c531659141344cd1fd0a4f28419497f9722a3daafe3b4186f6b6457e090600090a35050565b634e487b7160e01b600052604160045260246000fd5b600181811c90821680620000e557607f821691505b6020821081036200010657634e487b7160e01b600052602260045260246000fd5b50919050565b601f8211156200015a57600081815260208120601f850160051c81016020861015620001355750805b601f850160051c820191505b81811015620001565782815560010162000141565b5050505b505050565b81516001600160401b038111156200017b576200017b620000ba565b62000193816200018c8454620000d0565b846200010c565b602080601f831160018114620001cb5760008415620001b25750858301515b600019600386901b1c1916600185901b17855562000156565b600085815260208120601f198616915b82811015620001fc57888601518255948401946001909101908401620001db565b50858210156200021b5787850151600019600388901b60f8161c191681555b5050505050600190811b01905550565b612462806200023b6000396000f3fe608060405234801561001057600080fd5b506004361061018d5760003560e01c80636b20c454116100de578063bd85b03911610097578063f242432a11610071578063f242432a146103a3578063f2fde38b146103b6578063f5298aca146103c9578063f610372b146103dc57600080fd5b8063bd85b03914610334578063d81d0a1514610354578063e985e9c51461036757600080fd5b80636b20c454146102db578063715018a6146102ee5780637b5f8912146102f65780638456cb59146102fe5780638da5cb5b14610306578063a22cb4651461032157600080fd5b806340c10f191161014b5780634e946036116101255780634e946036146102715780634f558e791461028457806351e0e26b146102a65780635c975abb146102c957600080fd5b806340c10f191461022b578063436679b41461023e5780634e1273f41461025157600080fd5b8062fdd58e1461019257806301ffc9a7146101b857806302fe5305146101db5780630e89341c146101f05780632eb2c2d6146102105780633f4ba83a14610223575b600080fd5b6101a56101a03660046118a0565b6103ef565b6040519081526020015b60405180910390f35b6101cb6101c63660046118e0565b610488565b60405190151581526020016101af565b6101ee6101e93660046119a5565b6104d8565b005b6102036101fe3660046119f6565b6104ec565b6040516101af9190611a55565b6101ee61021e366004611b1d565b610580565b6101ee6105cc565b6101ee6102393660046118a0565b6105de565b6101ee61024c366004611bc7565b610606565b61026461025f366004611c3b565b610655565b6040516101af9190611d41565b6101ee61027f3660046118a0565b61077f565b6101cb6102923660046119f6565b600090815260046020526040902054151590565b6101cb6102b4366004611d54565b60056020526000908152604090205460ff1681565b600354600160a01b900460ff166101cb565b6101ee6102e9366004611bc7565b61082c565b6101ee61086f565b6101a5600181565b6101ee610881565b6003546040516001600160a01b0390911681526020016101af565b6101ee61032f366004611d6f565b610891565b6101a56103423660046119f6565b60009081526004602052604090205490565b6101ee610362366004611bc7565b61089c565b6101cb610375366004611dab565b6001600160a01b03918216600090815260016020908152604080832093909416825291909152205460ff1690565b6101ee6103b1366004611dde565b6108a4565b6101ee6103c4366004611d54565b6108e9565b6101ee6103d7366004611e43565b61095f565b6101ee6103ea3660046119f6565b6109a2565b60006001600160a01b03831661045f5760405162461bcd60e51b815260206004820152602a60248201527f455243313135353a2061646472657373207a65726f206973206e6f742061207660448201526930b634b21037bbb732b960b11b60648201526084015b60405180910390fd5b506000818152602081815260408083206001600160a01b03861684529091529020545b92915050565b60006001600160e01b03198216636cdb3d1360e11b14806104b957506001600160e01b031982166303a24d0760e21b145b8061048257506301ffc9a760e01b6001600160e01b0319831614610482565b6104e06109ed565b6104e981610a47565b50565b6060600280546104fb90611e76565b80601f016020809104026020016040519081016040528092919081815260200182805461052790611e76565b80156105745780601f1061054957610100808354040283529160200191610574565b820191906000526020600020905b81548152906001019060200180831161055757829003601f168201915b50505050509050919050565b6001600160a01b03851633148061059c575061059c8533610375565b6105b85760405162461bcd60e51b815260040161045690611eb0565b6105c58585858585610a53565b5050505050565b6105d46109ed565b6105dc610bfd565b565b6105e66109ed565b6106028260018360405180602001604052806000815250610c52565b5050565b3360009081526005602052604090205460ff166106355760405162461bcd60e51b815260040161045690611efe565b61065083838360405180602001604052806000815250610d3b565b505050565b606081518351146106ba5760405162461bcd60e51b815260206004820152602960248201527f455243313135353a206163636f756e747320616e6420696473206c656e677468604482015268040dad2e6dac2e8c6d60bb1b6064820152608401610456565b6000835167ffffffffffffffff8111156106d6576106d6611904565b6040519080825280602002602001820160405280156106ff578160200160208202803683370190505b50905060005b84518110156107775761074a85828151811061072357610723611f53565b602002602001015185838151811061073d5761073d611f53565b60200260200101516103ef565b82828151811061075c5761075c611f53565b602090810291909101015261077081611f7f565b9050610705565b509392505050565b600061078c8360016103ef565b116107d95760405162461bcd60e51b815260206004820152601b60248201527f596f7520646f6e277420616e7920776f6f6420746f206275726e2100000000006044820152606401610456565b6107e582600183610e95565b816001600160a01b03167f696de425f79f4a40bc6d2122ca50507f0efbeabbff86a84871b7196ab8ea8df78260405161082091815260200190565b60405180910390a25050565b6001600160a01b03831633148061084857506108488333610375565b6108645760405162461bcd60e51b815260040161045690611eb0565b610650838383610fad565b6108776109ed565b6105dc600061114a565b6108896109ed565b6105dc61119c565b6106023383836111df565b6106356109ed565b6001600160a01b0385163314806108c057506108c08533610375565b6108dc5760405162461bcd60e51b815260040161045690611eb0565b6105c585858585856112bf565b6108f16109ed565b6001600160a01b0381166109565760405162461bcd60e51b815260206004820152602660248201527f4f776e61626c653a206e6577206f776e657220697320746865207a65726f206160448201526564647265737360d01b6064820152608401610456565b6104e98161114a565b6001600160a01b03831633148061097b575061097b8333610375565b6109975760405162461bcd60e51b815260040161045690611eb0565b610650838383610e95565b3360009081526005602052604090205460ff166109d15760405162461bcd60e51b815260040161045690611efe565b6104e93360018360405180602001604052806000815250610c52565b6003546001600160a01b031633146105dc5760405162461bcd60e51b815260206004820181905260248201527f4f776e61626c653a2063616c6c6572206973206e6f7420746865206f776e65726044820152606401610456565b60026106028282611fde565b8151835114610a745760405162461bcd60e51b81526004016104569061209e565b6001600160a01b038416610a9a5760405162461bcd60e51b8152600401610456906120e6565b33610aa98187878787876113f7565b60005b8451811015610b8f576000858281518110610ac957610ac9611f53565b602002602001015190506000858381518110610ae757610ae7611f53565b602090810291909101810151600084815280835260408082206001600160a01b038e168352909352919091205490915081811015610b375760405162461bcd60e51b81526004016104569061212b565b6000838152602081815260408083206001600160a01b038e8116855292528083208585039055908b16825281208054849290610b74908490612175565b9250508190555050505080610b8890611f7f565b9050610aac565b50846001600160a01b0316866001600160a01b0316826001600160a01b03167f4a39dc06d4c0dbc64b70af90fd698a233a518aa5d07e595d983b8c0526c8f7fb8787604051610bdf929190612188565b60405180910390a4610bf581878787878761140d565b505050505050565b610c05611568565b6003805460ff60a01b191690557f5db9ee0a495bf2e6ff9c91a7834c1ba4fdd244a5e8aa4e537bd38aeae4b073aa335b6040516001600160a01b03909116815260200160405180910390a1565b6001600160a01b038416610c785760405162461bcd60e51b8152600401610456906121b6565b336000610c84856115b8565b90506000610c91856115b8565b9050610ca2836000898585896113f7565b6000868152602081815260408083206001600160a01b038b16845290915281208054879290610cd2908490612175565b909155505060408051878152602081018790526001600160a01b03808a1692600092918716917fc3d58168c5ae7397731d063d5bbf3d657854427343f4c083240f7aacaa2d0f62910160405180910390a4610d3283600089898989611603565b50505050505050565b6001600160a01b038416610d615760405162461bcd60e51b8152600401610456906121b6565b8151835114610d825760405162461bcd60e51b81526004016104569061209e565b33610d92816000878787876113f7565b60005b8451811015610e2d57838181518110610db057610db0611f53565b6020026020010151600080878481518110610dcd57610dcd611f53565b602002602001015181526020019081526020016000206000886001600160a01b03166001600160a01b031681526020019081526020016000206000828254610e159190612175565b90915550819050610e2581611f7f565b915050610d95565b50846001600160a01b031660006001600160a01b0316826001600160a01b03167f4a39dc06d4c0dbc64b70af90fd698a233a518aa5d07e595d983b8c0526c8f7fb8787604051610e7e929190612188565b60405180910390a46105c58160008787878761140d565b6001600160a01b038316610ebb5760405162461bcd60e51b8152600401610456906121f7565b336000610ec7846115b8565b90506000610ed4846115b8565b9050610ef4838760008585604051806020016040528060008152506113f7565b6000858152602081815260408083206001600160a01b038a16845290915290205484811015610f355760405162461bcd60e51b81526004016104569061223a565b6000868152602081815260408083206001600160a01b038b81168086529184528285208a8703905582518b81529384018a90529092908816917fc3d58168c5ae7397731d063d5bbf3d657854427343f4c083240f7aacaa2d0f62910160405180910390a4604080516020810190915260009052610d32565b6001600160a01b038316610fd35760405162461bcd60e51b8152600401610456906121f7565b8051825114610ff45760405162461bcd60e51b81526004016104569061209e565b6000339050611017818560008686604051806020016040528060008152506113f7565b60005b83518110156110dc57600084828151811061103757611037611f53565b60200260200101519050600084838151811061105557611055611f53565b602090810291909101810151600084815280835260408082206001600160a01b038c1683529093529190912054909150818110156110a55760405162461bcd60e51b81526004016104569061223a565b6000928352602083815260408085206001600160a01b038b16865290915290922091039055806110d481611f7f565b91505061101a565b5060006001600160a01b0316846001600160a01b0316826001600160a01b03167f4a39dc06d4c0dbc64b70af90fd698a233a518aa5d07e595d983b8c0526c8f7fb868660405161112d929190612188565b60405180910390a460408051602081019091526000905250505050565b600380546001600160a01b038381166001600160a01b0319831681179093556040519116919082907f8be0079c531659141344cd1fd0a4f28419497f9722a3daafe3b4186f6b6457e090600090a35050565b6111a46116be565b6003805460ff60a01b1916600160a01b1790557f62e78cea01bee320cd4e420270b5ea74000d11b0c9f74754ebdbfc544b05a258610c353390565b816001600160a01b0316836001600160a01b0316036112525760405162461bcd60e51b815260206004820152602960248201527f455243313135353a2073657474696e6720617070726f76616c20737461747573604482015268103337b91039b2b63360b91b6064820152608401610456565b6001600160a01b03838116600081815260016020908152604080832094871680845294825291829020805460ff191686151590811790915591519182527f17307eab39ab6107e8899845ad3d59bd9653f200f220920489ca2b5937696c31910160405180910390a3505050565b6001600160a01b0384166112e55760405162461bcd60e51b8152600401610456906120e6565b3360006112f1856115b8565b905060006112fe856115b8565b905061130e8389898585896113f7565b6000868152602081815260408083206001600160a01b038c1684529091529020548581101561134f5760405162461bcd60e51b81526004016104569061212b565b6000878152602081815260408083206001600160a01b038d8116855292528083208985039055908a1682528120805488929061138c908490612175565b909155505060408051888152602081018890526001600160a01b03808b16928c821692918816917fc3d58168c5ae7397731d063d5bbf3d657854427343f4c083240f7aacaa2d0f62910160405180910390a46113ec848a8a8a8a8a611603565b505050505050505050565b6113ff6116be565b610bf586868686868661170b565b6001600160a01b0384163b15610bf55760405163bc197c8160e01b81526001600160a01b0385169063bc197c8190611451908990899088908890889060040161227e565b6020604051808303816000875af192505050801561148c575060408051601f3d908101601f19168201909252611489918101906122dc565b60015b611538576114986122f9565b806308c379a0036114d157506114ac612315565b806114b757506114d3565b8060405162461bcd60e51b81526004016104569190611a55565b505b60405162461bcd60e51b815260206004820152603460248201527f455243313135353a207472616e7366657220746f206e6f6e2d455243313135356044820152732932b1b2b4bb32b91034b6b83632b6b2b73a32b960611b6064820152608401610456565b6001600160e01b0319811663bc197c8160e01b14610d325760405162461bcd60e51b81526004016104569061239f565b600354600160a01b900460ff166105dc5760405162461bcd60e51b815260206004820152601460248201527314185d5cd8589b194e881b9bdd081c185d5cd95960621b6044820152606401610456565b604080516001808252818301909252606091600091906020808301908036833701905050905082816000815181106115f2576115f2611f53565b602090810291909101015292915050565b6001600160a01b0384163b15610bf55760405163f23a6e6160e01b81526001600160a01b0385169063f23a6e619061164790899089908890889088906004016123e7565b6020604051808303816000875af1925050508015611682575060408051601f3d908101601f1916820190925261167f918101906122dc565b60015b61168e576114986122f9565b6001600160e01b0319811663f23a6e6160e01b14610d325760405162461bcd60e51b81526004016104569061239f565b600354600160a01b900460ff16156105dc5760405162461bcd60e51b815260206004820152601060248201526f14185d5cd8589b194e881c185d5cd95960821b6044820152606401610456565b6001600160a01b0385166117925760005b83518110156117905782818151811061173757611737611f53565b60200260200101516004600086848151811061175557611755611f53565b60200260200101518152602001908152602001600020600082825461177a9190612175565b90915550611789905081611f7f565b905061171c565b505b6001600160a01b038416610bf55760005b8351811015610d325760008482815181106117c0576117c0611f53565b6020026020010151905060008483815181106117de576117de611f53565b60200260200101519050600060046000848152602001908152602001600020549050818110156118615760405162461bcd60e51b815260206004820152602860248201527f455243313135353a206275726e20616d6f756e74206578636565647320746f74604482015267616c537570706c7960c01b6064820152608401610456565b6000928352600460205260409092209103905561187d81611f7f565b90506117a3565b80356001600160a01b038116811461189b57600080fd5b919050565b600080604083850312156118b357600080fd5b6118bc83611884565b946020939093013593505050565b6001600160e01b0319811681146104e957600080fd5b6000602082840312156118f257600080fd5b81356118fd816118ca565b9392505050565b634e487b7160e01b600052604160045260246000fd5b601f8201601f1916810167ffffffffffffffff8111828210171561194057611940611904565b6040525050565b600067ffffffffffffffff83111561196157611961611904565b604051611978601f8501601f19166020018261191a565b80915083815284848401111561198d57600080fd5b83836020830137600060208583010152509392505050565b6000602082840312156119b757600080fd5b813567ffffffffffffffff8111156119ce57600080fd5b8201601f810184136119df57600080fd5b6119ee84823560208401611947565b949350505050565b600060208284031215611a0857600080fd5b5035919050565b6000815180845260005b81811015611a3557602081850181015186830182015201611a19565b506000602082860101526020601f19601f83011685010191505092915050565b6020815260006118fd6020830184611a0f565b600067ffffffffffffffff821115611a8257611a82611904565b5060051b60200190565b600082601f830112611a9d57600080fd5b81356020611aaa82611a68565b604051611ab7828261191a565b83815260059390931b8501820192828101915086841115611ad757600080fd5b8286015b84811015611af25780358352918301918301611adb565b509695505050505050565b600082601f830112611b0e57600080fd5b6118fd83833560208501611947565b600080600080600060a08688031215611b3557600080fd5b611b3e86611884565b9450611b4c60208701611884565b9350604086013567ffffffffffffffff80821115611b6957600080fd5b611b7589838a01611a8c565b94506060880135915080821115611b8b57600080fd5b611b9789838a01611a8c565b93506080880135915080821115611bad57600080fd5b50611bba88828901611afd565b9150509295509295909350565b600080600060608486031215611bdc57600080fd5b611be584611884565b9250602084013567ffffffffffffffff80821115611c0257600080fd5b611c0e87838801611a8c565b93506040860135915080821115611c2457600080fd5b50611c3186828701611a8c565b9150509250925092565b60008060408385031215611c4e57600080fd5b823567ffffffffffffffff80821115611c6657600080fd5b818501915085601f830112611c7a57600080fd5b81356020611c8782611a68565b604051611c94828261191a565b83815260059390931b8501820192828101915089841115611cb457600080fd5b948201945b83861015611cd957611cca86611884565b82529482019490820190611cb9565b96505086013592505080821115611cef57600080fd5b50611cfc85828601611a8c565b9150509250929050565b600081518084526020808501945080840160005b83811015611d3657815187529582019590820190600101611d1a565b509495945050505050565b6020815260006118fd6020830184611d06565b600060208284031215611d6657600080fd5b6118fd82611884565b60008060408385031215611d8257600080fd5b611d8b83611884565b915060208301358015158114611da057600080fd5b809150509250929050565b60008060408385031215611dbe57600080fd5b611dc783611884565b9150611dd560208401611884565b90509250929050565b600080600080600060a08688031215611df657600080fd5b611dff86611884565b9450611e0d60208701611884565b93506040860135925060608601359150608086013567ffffffffffffffff811115611e3757600080fd5b611bba88828901611afd565b600080600060608486031215611e5857600080fd5b611e6184611884565b95602085013595506040909401359392505050565b600181811c90821680611e8a57607f821691505b602082108103611eaa57634e487b7160e01b600052602260045260246000fd5b50919050565b6020808252602e908201527f455243313135353a2063616c6c6572206973206e6f7420746f6b656e206f776e60408201526d195c881bdc88185c1c1c9bdd995960921b606082015260800190565b60208082526035908201527f43616c6c657220646f6573206e6f742068617665207065726d697373696f6e206040820152743a379031b0b636103a3434b990333ab731ba34b7b760591b606082015260800190565b634e487b7160e01b600052603260045260246000fd5b634e487b7160e01b600052601160045260246000fd5b600060018201611f9157611f91611f69565b5060010190565b601f82111561065057600081815260208120601f850160051c81016020861015611fbf5750805b601f850160051c820191505b81811015610bf557828155600101611fcb565b815167ffffffffffffffff811115611ff857611ff8611904565b61200c816120068454611e76565b84611f98565b602080601f83116001811461204157600084156120295750858301515b600019600386901b1c1916600185901b178555610bf5565b600085815260208120601f198616915b8281101561207057888601518255948401946001909101908401612051565b508582101561208e5787850151600019600388901b60f8161c191681555b5050505050600190811b01905550565b60208082526028908201527f455243313135353a2069647320616e6420616d6f756e7473206c656e677468206040820152670dad2e6dac2e8c6d60c31b606082015260800190565b60208082526025908201527f455243313135353a207472616e7366657220746f20746865207a65726f206164604082015264647265737360d81b606082015260800190565b6020808252602a908201527f455243313135353a20696e73756666696369656e742062616c616e636520666f60408201526939103a3930b739b332b960b11b606082015260800190565b8082018082111561048257610482611f69565b60408152600061219b6040830185611d06565b82810360208401526121ad8185611d06565b95945050505050565b60208082526021908201527f455243313135353a206d696e7420746f20746865207a65726f206164647265736040820152607360f81b606082015260800190565b60208082526023908201527f455243313135353a206275726e2066726f6d20746865207a65726f206164647260408201526265737360e81b606082015260800190565b60208082526024908201527f455243313135353a206275726e20616d6f756e7420657863656564732062616c604082015263616e636560e01b606082015260800190565b6001600160a01b0386811682528516602082015260a0604082018190526000906122aa90830186611d06565b82810360608401526122bc8186611d06565b905082810360808401526122d08185611a0f565b98975050505050505050565b6000602082840312156122ee57600080fd5b81516118fd816118ca565b600060033d11156123125760046000803e5060005160e01c5b90565b600060443d10156123235790565b6040516003193d81016004833e81513d67ffffffffffffffff816024840111818411171561235357505050505090565b828501915081518181111561236b5750505050505090565b843d87010160208285010111156123855750505050505090565b6123946020828601018761191a565b509095945050505050565b60208082526028908201527f455243313135353a204552433131353552656365697665722072656a656374656040820152676420746f6b656e7360c01b606082015260800190565b6001600160a01b03868116825285166020820152604081018490526060810183905260a06080820181905260009061242190830184611a0f565b97965050505050505056fea264697066735822122004e8612e53585e2003133c626f33c0098efccd25e63e7d7982dd1ca84cf57b2a64736f6c6343000813003368747470733a2f2f697066732e696f2f697066732f516d6139716f5766594c4b31677772656a706b3773743477743756383259786f4479394d774c45534834486b59342f7b69647d2e6a736f6e",
  "linkReferences": {},
  "deployedLinkReferences": {}
}